{
  "_format": "hh-sol-artifact-1",
  "contractName": "Forwarder",
  "sourceName": "contracts/Forwarder.sol",
  "abi": [
    {
      "anonymous": false,
      "inputs": [
        {
          "indexed": false,
          "internalType": "address",
          "name": "from",
          "type": "address"
        },
        {
          "indexed": false,
          "internalType": "uint256",
          "name": "value",
          "type": "uint256"
        },
        {
          "indexed": false,
          "internalType": "bytes",
          "name": "data",
          "type": "bytes"
        }
      ],
      "name": "ForwarderDeposited",
      "type": "event"
    },
    {
      "stateMutability": "payable",
      "type": "fallback"
    },
    {
      "inputs": [],
      "name": "autoFlush1155",
      "outputs": [
        {
          "internalType": "bool",
          "name": "",
          "type": "bool"
        }
      ],
      "stateMutability": "view",
      "type": "function"
    },
    {
      "inputs": [],
      "name": "autoFlush721",
      "outputs": [
        {
          "internalType": "bool",
          "name": "",
          "type": "bool"
        }
      ],
      "stateMutability": "view",
      "type": "function"
    },
    {
      "inputs": [
        {
          "internalType": "address",
          "name": "tokenContractAddress",
          "type": "address"
        },
        {
          "internalType": "uint256[]",
          "name": "tokenIds",
          "type": "uint256[]"
        }
      ],
      "name": "batchFlushERC1155Tokens",
      "outputs": [],
      "stateMutability": "nonpayable",
      "type": "function"
    },
    {
      "inputs": [
        {
          "internalType": "address",
          "name": "target",
          "type": "address"
        },
        {
          "internalType": "uint256",
          "name": "value",
          "type": "uint256"
        },
        {
          "internalType": "bytes",
          "name": "data",
          "type": "bytes"
        }
      ],
      "name": "callFromParent",
      "outputs": [
        {
          "internalType": "bytes",
          "name": "",
          "type": "bytes"
        }
      ],
      "stateMutability": "nonpayable",
      "type": "function"
    },
    {
      "inputs": [],
      "name": "flush",
      "outputs": [],
      "stateMutability": "nonpayable",
      "type": "function"
    },
    {
      "inputs": [
        {
          "internalType": "address",
          "name": "tokenContractAddress",
          "type": "address"
        },
        {
          "internalType": "uint256",
          "name": "tokenId",
          "type": "uint256"
        }
      ],
      "name": "flushERC1155Tokens",
      "outputs": [],
      "stateMutability": "nonpayable",
      "type": "function"
    },
    {
      "inputs": [
        {
          "internalType": "address",
          "name": "tokenContractAddress",
          "type": "address"
        },
        {
          "internalType": "uint256",
          "name": "tokenId",
          "type": "uint256"
        }
      ],
      "name": "flushERC721Token",
      "outputs": [],
      "stateMutability": "nonpayable",
      "type": "function"
    },
    {
      "inputs": [
        {
          "internalType": "address",
          "name": "tokenContractAddress",
          "type": "address"
        }
      ],
      "name": "flushTokens",
      "outputs": [],
      "stateMutability": "nonpayable",
      "type": "function"
    },
    {
      "inputs": [
        {
          "internalType": "address",
          "name": "_parentAddress",
          "type": "address"
        },
        {
          "internalType": "bool",
          "name": "_autoFlush721",
          "type": "bool"
        },
        {
          "internalType": "bool",
          "name": "_autoFlush1155",
          "type": "bool"
        }
      ],
      "name": "init",
      "outputs": [],
      "stateMutability": "nonpayable",
      "type": "function"
    },
    {
      "inputs": [
        {
          "internalType": "address",
          "name": "_operator",
          "type": "address"
        },
        {
          "internalType": "address",
          "name": "_from",
          "type": "address"
        },
        {
          "internalType": "uint256[]",
          "name": "ids",
          "type": "uint256[]"
        },
        {
          "internalType": "uint256[]",
          "name": "values",
          "type": "uint256[]"
        },
        {
          "internalType": "bytes",
          "name": "data",
          "type": "bytes"
        }
      ],
      "name": "onERC1155BatchReceived",
      "outputs": [
        {
          "internalType": "bytes4",
          "name": "",
          "type": "bytes4"
        }
      ],
      "stateMutability": "nonpayable",
      "type": "function"
    },
    {
      "inputs": [
        {
          "internalType": "address",
          "name": "_operator",
          "type": "address"
        },
        {
          "internalType": "address",
          "name": "_from",
          "type": "address"
        },
        {
          "internalType": "uint256",
          "name": "id",
          "type": "uint256"
        },
        {
          "internalType": "uint256",
          "name": "value",
          "type": "uint256"
        },
        {
          "internalType": "bytes",
          "name": "data",
          "type": "bytes"
        }
      ],
      "name": "onERC1155Received",
      "outputs": [
        {
          "internalType": "bytes4",
          "name": "",
          "type": "bytes4"
        }
      ],
      "stateMutability": "nonpayable",
      "type": "function"
    },
    {
      "inputs": [
        {
          "internalType": "address",
          "name": "_operator",
          "type": "address"
        },
        {
          "internalType": "address",
          "name": "_from",
          "type": "address"
        },
        {
          "internalType": "uint256",
          "name": "_tokenId",
          "type": "uint256"
        },
        {
          "internalType": "bytes",
          "name": "data",
          "type": "bytes"
        }
      ],
      "name": "onERC721Received",
      "outputs": [
        {
          "internalType": "bytes4",
          "name": "",
          "type": "bytes4"
        }
      ],
      "stateMutability": "nonpayable",
      "type": "function"
    },
    {
      "inputs": [],
      "name": "parentAddress",
      "outputs": [
        {
          "internalType": "address",
          "name": "",
          "type": "address"
        }
      ],
      "stateMutability": "view",
      "type": "function"
    },
    {
      "inputs": [
        {
          "internalType": "bool",
          "name": "autoFlush",
          "type": "bool"
        }
      ],
      "name": "setAutoFlush1155",
      "outputs": [],
      "stateMutability": "nonpayable",
      "type": "function"
    },
    {
      "inputs": [
        {
          "internalType": "bool",
          "name": "autoFlush",
          "type": "bool"
        }
      ],
      "name": "setAutoFlush721",
      "outputs": [],
      "stateMutability": "nonpayable",
      "type": "function"
    },
    {
      "inputs": [
        {
          "internalType": "bytes4",
          "name": "interfaceId",
          "type": "bytes4"
        }
      ],
      "name": "supportsInterface",
      "outputs": [
        {
          "internalType": "bool",
          "name": "",
          "type": "bool"
        }
      ],
      "stateMutability": "view",
      "type": "function"
    },
    {
      "stateMutability": "payable",
      "type": "receive"
    }
  ],
  "bytecode": "0x60806040526000805461ffff60a01b191661010160a01b17905534801561002557600080fd5b50611aa4806100356000396000f3fe6080604052600436106100f65760003560e01c80638acc01be1161008a578063c59f9f1911610059578063c59f9f19146102ca578063c6a2dd24146102ea578063f23a6e611461030a578063f684e1ed1461032a57610105565b80638acc01be14610249578063bad23ab914610269578063bc197c811461028a578063bee3e676146102aa57610105565b80633ef13367116100c65780633ef13367146101c75780636b9f96ea146101e757806377e60b35146101fc5780638972c17c1461022957610105565b8062821de31461010d57806301ffc9a71461014a578063150b7a021461017a578063159e44d7146101a757610105565b366101055761010361034b565b005b61010361034b565b34801561011957600080fd5b5060005461012d906001600160a01b031681565b6040516001600160a01b0390911681526020015b60405180910390f35b34801561015657600080fd5b5061016a61016536600461125b565b61042d565b6040519015158152602001610141565b34801561018657600080fd5b5061019a6101953660046112ba565b610458565b604051610141919061139a565b3480156101b357600080fd5b506101036101c23660046113af565b6105b8565b3480156101d357600080fd5b506101036101e23660046113db565b610782565b3480156101f357600080fd5b5061010361034b565b34801561020857600080fd5b5061021c610217366004611441565b61081c565b60405161014191906114f5565b34801561023557600080fd5b506101036102443660046113af565b610905565b34801561025557600080fd5b50610103610264366004611516565b610a99565b34801561027557600080fd5b5060005461016a90600160a81b900460ff1681565b34801561029657600080fd5b5061019a6102a5366004611578565b610ae1565b3480156102b657600080fd5b506101036102c5366004611637565b610c06565b3480156102d657600080fd5b506101036102e5366004611516565b610d70565b3480156102f657600080fd5b50610103610305366004611682565b610db8565b34801561031657600080fd5b5061019a6103253660046116d7565b610fd6565b34801561033657600080fd5b5060005461016a90600160a01b900460ff1681565b47806103545750565b600080546040516001600160a01b039091169083908381818185875af1925050503d80600081146103a1576040519150601f19603f3d011682016040523d82523d6000602084013e6103a6565b606091505b50509050806103eb5760405162461bcd60e51b815260206004820152600c60248201526b119b1d5cda0819985a5b195960a21b60448201526064015b60405180910390fd5b7f69b31548dea9b3b707b4dff357d326e3e9348b24e7a6080a218a6edeeec48f9b3383600036604051610421949392919061177c565b60405180910390a15050565b60006001600160e01b03198216632becf54f60e01b14806104525750610452826110f5565b92915050565b60008054600160a01b900460ff16156105a7576040516301ffc9a760e01b8152339081906301ffc9a790610497906380ac58cd60e01b9060040161139a565b602060405180830381865afa1580156104b4573d6000803e3d6000fd5b505050506040513d601f19601f820116820180604052508101906104d891906117a4565b61053d5760405162461bcd60e51b815260206004820152603060248201527f5468652063616c6c657220646f6573206e6f7420737570706f7274207468652060448201526f45524337323120696e7465726661636560801b60648201526084016103e2565b600054604051635c46a7ef60e11b81526001600160a01b038084169263b88d4fde926105739230921690899089906004016117c1565b600060405180830381600087803b15801561058d57600080fd5b505af11580156105a1573d6000803e3d6000fd5b50505050505b50630a85bd0160e11b949350505050565b6040516301ffc9a760e01b815282906001600160a01b038216906301ffc9a7906105ed906380ac58cd60e01b9060040161139a565b602060405180830381865afa15801561060a573d6000803e3d6000fd5b505050506040513d601f19601f8201168201806040525081019061062e91906117a4565b6106a05760405162461bcd60e51b815260206004820152603e60248201527f54686520746f6b656e436f6e74726163744164647265737320646f6573206e6f60448201527f7420737570706f7274207468652045524337323120696e74657266616365000060648201526084016103e2565b6040516331a9108f60e11b8152600481018390526000906001600160a01b03831690636352211e90602401602060405180830381865afa1580156106e8573d6000803e3d6000fd5b505050506040513d601f19601f8201168201806040525081019061070c91906117f4565b6000546040516323b872dd60e01b81526001600160a01b0380841660048301529182166024820152604481018690529192508316906323b872dd90606401600060405180830381600087803b15801561076457600080fd5b505af1158015610778573d6000803e3d6000fd5b5050505050505050565b6040516370a0823160e01b8152306004820181905282916000906001600160a01b038416906370a0823190602401602060405180830381865afa1580156107cd573d6000803e3d6000fd5b505050506040513d601f19601f820116820180604052508101906107f19190611811565b9050806107fe5750505050565b6000546108169085906001600160a01b03168361112a565b50505050565b6000546060906001600160a01b031633146108495760405162461bcd60e51b81526004016103e29061182a565b600080866001600160a01b031686868660405161086792919061184f565b60006040518083038185875af1925050503d80600081146108a4576040519150601f19603f3d011682016040523d82523d6000602084013e6108a9565b606091505b5091509150816108fb5760405162461bcd60e51b815260206004820152601c60248201527f506172656e742063616c6c20657865637574696f6e206661696c65640000000060448201526064016103e2565b9695505050505050565b6040516301ffc9a760e01b815282906001600160a01b038216906301ffc9a79061093a90636cdb3d1360e11b9060040161139a565b602060405180830381865afa158015610957573d6000803e3d6000fd5b505050506040513d601f19601f8201168201806040525081019061097b91906117a4565b6109975760405162461bcd60e51b81526004016103e29061185f565b604051627eeac760e11b8152306004820181905260248201849052906000906001600160a01b0384169062fdd58e90604401602060405180830381865afa1580156109e6573d6000803e3d6000fd5b505050506040513d601f19601f82011682018060405250810190610a0a9190611811565b60008054604051637921219560e11b81526001600160a01b0386811660048301529182166024820152604481018890526064810184905260a0608482015260a48101929092529192509084169063f242432a9060c401600060405180830381600087803b158015610a7a57600080fd5b505af1158015610a8e573d6000803e3d6000fd5b505050505050505050565b6000546001600160a01b03163314610ac35760405162461bcd60e51b81526004016103e29061182a565b60008054911515600160a81b0260ff60a81b19909216919091179055565b6040516301ffc9a760e01b8152600090339081906301ffc9a790610b1090636cdb3d1360e11b9060040161139a565b602060405180830381865afa158015610b2d573d6000803e3d6000fd5b505050506040513d601f19601f82011682018060405250810190610b5191906117a4565b610b6d5760405162461bcd60e51b81526004016103e29061185f565b600054600160a81b900460ff1615610bf057600054604051631759616b60e11b81526001600160a01b0380841692632eb2c2d692610bbd92309216908d908d908d908d908d908d906004016118e7565b600060405180830381600087803b158015610bd757600080fd5b505af1158015610beb573d6000803e3d6000fd5b505050505b5063bc197c8160e01b9998505050505050505050565b6000546001600160a01b031615610c555760405162461bcd60e51b8152602060048201526013602482015272105b1c9958591e481a5b9a5d1a585b1a5e9959606a1b60448201526064016103e2565b600080546001600160a01b0385166001600160a81b031990911617600160a01b841515021760ff60a81b1916600160a81b831515021790554780610c995750505050565b600080546040516001600160a01b039091169083908381818185875af1925050503d8060008114610ce6576040519150601f19603f3d011682016040523d82523d6000602084013e610ceb565b606091505b5050905080610d2b5760405162461bcd60e51b815260206004820152600c60248201526b119b1d5cda0819985a5b195960a21b60448201526064016103e2565b7f69b31548dea9b3b707b4dff357d326e3e9348b24e7a6080a218a6edeeec48f9b3083600036604051610d61949392919061177c565b60405180910390a15050505050565b6000546001600160a01b03163314610d9a5760405162461bcd60e51b81526004016103e29061182a565b60008054911515600160a01b0260ff60a01b19909216919091179055565b6040516301ffc9a760e01b815283906001600160a01b038216906301ffc9a790610ded90636cdb3d1360e11b9060040161139a565b602060405180830381865afa158015610e0a573d6000803e3d6000fd5b505050506040513d601f19601f82011682018060405250810190610e2e91906117a4565b610e4a5760405162461bcd60e51b81526004016103e29061185f565b3060008367ffffffffffffffff811115610e6657610e666112a4565b604051908082528060200260200182016040528015610e8f578160200160208202803683370190505b50905060005b84811015610f6357836001600160a01b031662fdd58e84888885818110610ebe57610ebe61194b565b6040516001600160e01b031960e087901b1681526001600160a01b0390941660048501526020029190910135602483015250604401602060405180830381865afa158015610f10573d6000803e3d6000fd5b505050506040513d601f19601f82011682018060405250810190610f349190611811565b828281518110610f4657610f4661194b565b602090810291909101015280610f5b81611961565b915050610e95565b50600054604051631759616b60e11b81526001600160a01b0380861692632eb2c2d692610f9c92879216908a908a90889060040161198a565b600060405180830381600087803b158015610fb657600080fd5b505af1158015610fca573d6000803e3d6000fd5b50505050505050505050565b6040516301ffc9a760e01b8152600090339081906301ffc9a79061100590636cdb3d1360e11b9060040161139a565b602060405180830381865afa158015611022573d6000803e3d6000fd5b505050506040513d601f19601f8201168201806040525081019061104691906117a4565b6110625760405162461bcd60e51b81526004016103e29061185f565b600054600160a81b900460ff16156110e157600054604051637921219560e11b81526001600160a01b038084169263f242432a926110ae92309216908b908b908b908b90600401611a0b565b600060405180830381600087803b1580156110c857600080fd5b505af11580156110dc573d6000803e3d6000fd5b505050505b5063f23a6e6160e01b979650505050505050565b60006001600160e01b03198216630271189760e51b148061045257506301ffc9a760e01b6001600160e01b0319831614610452565b604080516001600160a01b038481166024830152604480830185905283518084039091018152606490920183526020820180516001600160e01b031663a9059cbb60e01b17905291516000928392908716916111869190611a52565b6000604051808303816000865af19150503d80600081146111c3576040519150601f19603f3d011682016040523d82523d6000602084013e6111c8565b606091505b50915091508180156111f25750805115806111f25750808060200190518101906111f291906117a4565b6112545760405162461bcd60e51b815260206004820152602d60248201527f5472616e7366657248656c7065723a3a736166655472616e736665723a20747260448201526c185b9cd9995c8819985a5b1959609a1b60648201526084016103e2565b5050505050565b60006020828403121561126d57600080fd5b81356001600160e01b03198116811461128557600080fd5b9392505050565b6001600160a01b03811681146112a157600080fd5b50565b634e487b7160e01b600052604160045260246000fd5b600080600080608085870312156112d057600080fd5b84356112db8161128c565b935060208501356112eb8161128c565b925060408501359150606085013567ffffffffffffffff8082111561130f57600080fd5b818701915087601f83011261132357600080fd5b813581811115611335576113356112a4565b604051601f8201601f19908116603f0116810190838211818310171561135d5761135d6112a4565b816040528281528a602084870101111561137657600080fd5b82602086016020830137600060208483010152809550505050505092959194509250565b6001600160e01b031991909116815260200190565b600080604083850312156113c257600080fd5b82356113cd8161128c565b946020939093013593505050565b6000602082840312156113ed57600080fd5b81356112858161128c565b60008083601f84011261140a57600080fd5b50813567ffffffffffffffff81111561142257600080fd5b60208301915083602082850101111561143a57600080fd5b9250929050565b6000806000806060858703121561145757600080fd5b84356114628161128c565b935060208501359250604085013567ffffffffffffffff81111561148557600080fd5b611491878288016113f8565b95989497509550505050565b60005b838110156114b85781810151838201526020016114a0565b838111156108165750506000910152565b600081518084526114e181602086016020860161149d565b601f01601f19169290920160200192915050565b60208152600061128560208301846114c9565b80151581146112a157600080fd5b60006020828403121561152857600080fd5b813561128581611508565b60008083601f84011261154557600080fd5b50813567ffffffffffffffff81111561155d57600080fd5b6020830191508360208260051b850101111561143a57600080fd5b60008060008060008060008060a0898b03121561159457600080fd5b883561159f8161128c565b975060208901356115af8161128c565b9650604089013567ffffffffffffffff808211156115cc57600080fd5b6115d88c838d01611533565b909850965060608b01359150808211156115f157600080fd5b6115fd8c838d01611533565b909650945060808b013591508082111561161657600080fd5b506116238b828c016113f8565b999c989b5096995094979396929594505050565b60008060006060848603121561164c57600080fd5b83356116578161128c565b9250602084013561166781611508565b9150604084013561167781611508565b809150509250925092565b60008060006040848603121561169757600080fd5b83356116a28161128c565b9250602084013567ffffffffffffffff8111156116be57600080fd5b6116ca86828701611533565b9497909650939450505050565b60008060008060008060a087890312156116f057600080fd5b86356116fb8161128c565b9550602087013561170b8161128c565b94506040870135935060608701359250608087013567ffffffffffffffff81111561173557600080fd5b61174189828a016113f8565b979a9699509497509295939492505050565b81835281816020850137506000828201602090810191909152601f909101601f19169091010190565b60018060a01b03851681528360208201526060604082015260006108fb606083018486611753565b6000602082840312156117b657600080fd5b815161128581611508565b6001600160a01b03858116825284166020820152604081018390526080606082018190526000906108fb908301846114c9565b60006020828403121561180657600080fd5b81516112858161128c565b60006020828403121561182357600080fd5b5051919050565b6020808252600b908201526a13db9b1e4814185c995b9d60aa1b604082015260600190565b8183823760009101908152919050565b60208082526032908201527f5468652063616c6c657220646f6573206e6f7420737570706f72742074686520604082015271494552433131353520696e7465726661636560701b606082015260800190565b81835260006001600160fb1b038311156118ca57600080fd5b8260051b8083602087013760009401602001938452509192915050565b6001600160a01b0389811682528816602082015260a060408201819052600090611914908301888a6118b1565b82810360608401526119278187896118b1565b9050828103608084015261193c818587611753565b9b9a5050505050505050505050565b634e487b7160e01b600052603260045260246000fd5b600060001982141561198357634e487b7160e01b600052601160045260246000fd5b5060010190565b600060018060a01b03808816835260208188168185015260a060408501526119b660a0850187896118b1565b8481036060860152855180825282870193509082019060005b818110156119eb578451835293830193918301916001016119cf565b505084810360808601526000815281810193505050509695505050505050565b6001600160a01b03878116825286166020820152604081018590526060810184905260a060808201819052600090611a469083018486611753565b98975050505050505050565b60008251611a6481846020870161149d565b919091019291505056fea2646970667358221220c339dec55573b16e7178a78000d7c685a49f277e8d68fe338fb45a22380329fc64736f6c634300080a0033",
  "linkReferences": {},
  "deployedLinkReferences": {}
}