{
  "_format": "hh-sol-artifact-1",
  "contractName": "GasStation",
  "sourceName": "contracts/GasStation.sol",
  "abi": [
    {
      "inputs": [
        {
          "internalType": "address",
          "name": "_forwarderFactory",
          "type": "address"
        },
        {
          "internalType": "bytes32",
          "name": "_forwarderBytecodeHash",
          "type": "bytes32"
        }
      ],
      "stateMutability": "nonpayable",
      "type": "constructor"
    },
    {
      "anonymous": false,
      "inputs": [
        {
          "indexed": false,
          "internalType": "uint256",
          "name": "value",
          "type": "uint256"
        },
        {
          "indexed": false,
          "internalType": "address",
          "name": "parent",
          "type": "address"
        }
      ],
      "name": "Claimed",
      "type": "event"
    },
    {
      "anonymous": false,
      "inputs": [
        {
          "indexed": false,
          "internalType": "address",
          "name": "parent",
          "type": "address"
        },
        {
          "indexed": false,
          "internalType": "address",
          "name": "token",
          "type": "address"
        },
        {
          "indexed": false,
          "internalType": "uint256",
          "name": "min",
          "type": "uint256"
        },
        {
          "indexed": false,
          "internalType": "uint256",
          "name": "maxGasPrice",
          "type": "uint256"
        }
      ],
      "name": "ConfigSet",
      "type": "event"
    },
    {
      "anonymous": false,
      "inputs": [
        {
          "indexed": false,
          "internalType": "uint256",
          "name": "value",
          "type": "uint256"
        },
        {
          "indexed": false,
          "internalType": "address",
          "name": "parent",
          "type": "address"
        },
        {
          "indexed": false,
          "internalType": "address",
          "name": "keeper",
          "type": "address"
        },
        {
          "indexed": false,
          "internalType": "address",
          "name": "forwarder",
          "type": "address"
        }
      ],
      "name": "CreateConsumed",
      "type": "event"
    },
    {
      "anonymous": false,
      "inputs": [
        {
          "indexed": false,
          "internalType": "uint256",
          "name": "value",
          "type": "uint256"
        },
        {
          "indexed": false,
          "internalType": "address",
          "name": "parent",
          "type": "address"
        }
      ],
      "name": "Filled",
      "type": "event"
    },
    {
      "anonymous": false,
      "inputs": [
        {
          "indexed": false,
          "internalType": "uint256",
          "name": "value",
          "type": "uint256"
        },
        {
          "indexed": false,
          "internalType": "address",
          "name": "parent",
          "type": "address"
        },
        {
          "indexed": false,
          "internalType": "address",
          "name": "keeper",
          "type": "address"
        },
        {
          "indexed": false,
          "internalType": "address",
          "name": "forwarder",
          "type": "address"
        }
      ],
      "name": "FlushConsumed",
      "type": "event"
    },
    {
      "anonymous": false,
      "inputs": [
        {
          "indexed": true,
          "internalType": "bytes32",
          "name": "role",
          "type": "bytes32"
        },
        {
          "indexed": true,
          "internalType": "bytes32",
          "name": "previousAdminRole",
          "type": "bytes32"
        },
        {
          "indexed": true,
          "internalType": "bytes32",
          "name": "newAdminRole",
          "type": "bytes32"
        }
      ],
      "name": "RoleAdminChanged",
      "type": "event"
    },
    {
      "anonymous": false,
      "inputs": [
        {
          "indexed": true,
          "internalType": "bytes32",
          "name": "role",
          "type": "bytes32"
        },
        {
          "indexed": true,
          "internalType": "address",
          "name": "account",
          "type": "address"
        },
        {
          "indexed": true,
          "internalType": "address",
          "name": "sender",
          "type": "address"
        }
      ],
      "name": "RoleGranted",
      "type": "event"
    },
    {
      "anonymous": false,
      "inputs": [
        {
          "indexed": true,
          "internalType": "bytes32",
          "name": "role",
          "type": "bytes32"
        },
        {
          "indexed": true,
          "internalType": "address",
          "name": "account",
          "type": "address"
        },
        {
          "indexed": true,
          "internalType": "address",
          "name": "sender",
          "type": "address"
        }
      ],
      "name": "RoleRevoked",
      "type": "event"
    },
    {
      "inputs": [],
      "name": "DEFAULT_ADMIN_ROLE",
      "outputs": [
        {
          "internalType": "bytes32",
          "name": "",
          "type": "bytes32"
        }
      ],
      "stateMutability": "view",
      "type": "function"
    },
    {
      "inputs": [],
      "name": "KEEPER_CREATE_FORWARDER_EXPECTED_CONSUMED_GAS",
      "outputs": [
        {
          "internalType": "uint256",
          "name": "",
          "type": "uint256"
        }
      ],
      "stateMutability": "view",
      "type": "function"
    },
    {
      "inputs": [],
      "name": "KEEPER_FLUSH_EXPECTED_CONSUMED_GAS",
      "outputs": [
        {
          "internalType": "uint256",
          "name": "",
          "type": "uint256"
        }
      ],
      "stateMutability": "view",
      "type": "function"
    },
    {
      "inputs": [],
      "name": "KEEPER_ROLE",
      "outputs": [
        {
          "internalType": "bytes32",
          "name": "",
          "type": "bytes32"
        }
      ],
      "stateMutability": "view",
      "type": "function"
    },
    {
      "inputs": [
        {
          "internalType": "uint256",
          "name": "value",
          "type": "uint256"
        }
      ],
      "name": "claim",
      "outputs": [],
      "stateMutability": "payable",
      "type": "function"
    },
    {
      "inputs": [
        {
          "internalType": "bytes32",
          "name": "salt",
          "type": "bytes32"
        },
        {
          "internalType": "address",
          "name": "_parent",
          "type": "address"
        }
      ],
      "name": "computeForwarderAddress",
      "outputs": [
        {
          "internalType": "address",
          "name": "",
          "type": "address"
        }
      ],
      "stateMutability": "view",
      "type": "function"
    },
    {
      "inputs": [
        {
          "internalType": "address",
          "name": "parent",
          "type": "address"
        },
        {
          "internalType": "bytes32",
          "name": "forwarderSalt",
          "type": "bytes32"
        },
        {
          "internalType": "address",
          "name": "tokenContractAddress",
          "type": "address"
        },
        {
          "internalType": "address",
          "name": "keeper",
          "type": "address"
        }
      ],
      "name": "createForwarder",
      "outputs": [],
      "stateMutability": "nonpayable",
      "type": "function"
    },
    {
      "inputs": [],
      "name": "fill",
      "outputs": [],
      "stateMutability": "payable",
      "type": "function"
    },
    {
      "inputs": [
        {
          "internalType": "address",
          "name": "parent",
          "type": "address"
        },
        {
          "internalType": "bytes32",
          "name": "forwarderSalt",
          "type": "bytes32"
        },
        {
          "internalType": "address",
          "name": "tokenContractAddress",
          "type": "address"
        },
        {
          "internalType": "address",
          "name": "keeper",
          "type": "address"
        }
      ],
      "name": "flush",
      "outputs": [],
      "stateMutability": "nonpayable",
      "type": "function"
    },
    {
      "inputs": [],
      "name": "forwarderBytecodeHash",
      "outputs": [
        {
          "internalType": "bytes32",
          "name": "",
          "type": "bytes32"
        }
      ],
      "stateMutability": "view",
      "type": "function"
    },
    {
      "inputs": [],
      "name": "forwarderFactory",
      "outputs": [
        {
          "internalType": "address",
          "name": "",
          "type": "address"
        }
      ],
      "stateMutability": "view",
      "type": "function"
    },
    {
      "inputs": [
        {
          "internalType": "address",
          "name": "parent",
          "type": "address"
        }
      ],
      "name": "getCapacity",
      "outputs": [
        {
          "internalType": "uint256",
          "name": "",
          "type": "uint256"
        }
      ],
      "stateMutability": "view",
      "type": "function"
    },
    {
      "inputs": [
        {
          "internalType": "address",
          "name": "keeper",
          "type": "address"
        }
      ],
      "name": "getClaimable",
      "outputs": [
        {
          "internalType": "uint256",
          "name": "",
          "type": "uint256"
        }
      ],
      "stateMutability": "view",
      "type": "function"
    },
    {
      "inputs": [
        {
          "internalType": "bytes32",
          "name": "role",
          "type": "bytes32"
        }
      ],
      "name": "getRoleAdmin",
      "outputs": [
        {
          "internalType": "bytes32",
          "name": "",
          "type": "bytes32"
        }
      ],
      "stateMutability": "view",
      "type": "function"
    },
    {
      "inputs": [
        {
          "internalType": "bytes32",
          "name": "role",
          "type": "bytes32"
        },
        {
          "internalType": "address",
          "name": "account",
          "type": "address"
        }
      ],
      "name": "grantRole",
      "outputs": [],
      "stateMutability": "nonpayable",
      "type": "function"
    },
    {
      "inputs": [
        {
          "internalType": "bytes32",
          "name": "role",
          "type": "bytes32"
        },
        {
          "internalType": "address",
          "name": "account",
          "type": "address"
        }
      ],
      "name": "hasRole",
      "outputs": [
        {
          "internalType": "bool",
          "name": "",
          "type": "bool"
        }
      ],
      "stateMutability": "view",
      "type": "function"
    },
    {
      "inputs": [
        {
          "internalType": "address",
          "name": "tokenContractAddress",
          "type": "address"
        },
        {
          "internalType": "address",
          "name": "forwarderAddress",
          "type": "address"
        },
        {
          "internalType": "uint256",
          "name": "min",
          "type": "uint256"
        },
        {
          "internalType": "uint256",
          "name": "maxGasPrice",
          "type": "uint256"
        }
      ],
      "name": "isReadyOrAbort",
      "outputs": [],
      "stateMutability": "view",
      "type": "function"
    },
    {
      "inputs": [
        {
          "internalType": "bytes32",
          "name": "role",
          "type": "bytes32"
        },
        {
          "internalType": "address",
          "name": "account",
          "type": "address"
        }
      ],
      "name": "renounceRole",
      "outputs": [],
      "stateMutability": "nonpayable",
      "type": "function"
    },
    {
      "inputs": [
        {
          "internalType": "bytes32",
          "name": "role",
          "type": "bytes32"
        },
        {
          "internalType": "address",
          "name": "account",
          "type": "address"
        }
      ],
      "name": "revokeRole",
      "outputs": [],
      "stateMutability": "nonpayable",
      "type": "function"
    },
    {
      "inputs": [
        {
          "internalType": "address",
          "name": "tokenContractAddress",
          "type": "address"
        },
        {
          "internalType": "uint256",
          "name": "min",
          "type": "uint256"
        },
        {
          "internalType": "uint256",
          "name": "maxGasPrice",
          "type": "uint256"
        }
      ],
      "name": "setTokenConfig",
      "outputs": [],
      "stateMutability": "nonpayable",
      "type": "function"
    },
    {
      "inputs": [
        {
          "internalType": "bytes4",
          "name": "interfaceId",
          "type": "bytes4"
        }
      ],
      "name": "supportsInterface",
      "outputs": [
        {
          "internalType": "bool",
          "name": "",
          "type": "bool"
        }
      ],
      "stateMutability": "view",
      "type": "function"
    }
  ],
  "bytecode": "0x60c060405234801561001057600080fd5b506040516200140a3803806200140a8339810160408190526100319161011d565b61005b7ffc8737ab85eb45125971625a9ebdb75cc78e01d5c1fa80c4c6e5203f47bc4fab33610071565b6001600160a01b0390911660805260a052610157565b61007b828261007f565b5050565b6000828152602081815260408083206001600160a01b038516845290915290205460ff1661007b576000828152602081815260408083206001600160a01b03851684529091529020805460ff191660011790556100d93390565b6001600160a01b0316816001600160a01b0316837f2f8788117e7eff1d82e926ec794901d17c78024a50270940304540a733656f0d60405160405180910390a45050565b6000806040838503121561013057600080fd5b82516001600160a01b038116811461014757600080fd5b6020939093015192949293505050565b60805160a05161127862000192600039600081816104000152610b890152600081816102bd015281816105270152610b5801526112786000f3fe60806040526004361061012a5760003560e01c806376c4f130116100ab578063c3c20bc11161006f578063c3c20bc114610379578063d5207273146103af578063d547741f146103c6578063d9c55ce1146103e6578063dde84870146103ee578063e7f8a03a1461042257600080fd5b806376c4f130146102ab578063888ac0a7146102f757806391d148541461030e578063a217fddf1461032e578063a583024b1461034357600080fd5b8063364bc15a116100f2578063364bc15a1461020457806336568abe14610238578063379607f51461025857806338f99cb51461026b57806357337a921461028b57600080fd5b806301ffc9a71461012f5780631d9bb26d14610164578063248a9ca3146101865780632f2ff15d146101c4578063351aa887146101e4575b600080fd5b34801561013b57600080fd5b5061014f61014a366004610f59565b610442565b60405190151581526020015b60405180910390f35b34801561017057600080fd5b5061018461017f366004610f9f565b610479565b005b34801561019257600080fd5b506101b66101a1366004610fec565b60009081526020819052604090206001015490565b60405190815260200161015b565b3480156101d057600080fd5b506101846101df366004611005565b6105fb565b3480156101f057600080fd5b506101846101ff366004610f9f565b610626565b34801561021057600080fd5b506101b67ffc8737ab85eb45125971625a9ebdb75cc78e01d5c1fa80c4c6e5203f47bc4fab81565b34801561024457600080fd5b50610184610253366004611005565b610772565b610184610266366004610fec565b6107f5565b34801561027757600080fd5b50610184610286366004611031565b6108b4565b34801561029757600080fd5b506101846102a6366004611073565b6109df565b3480156102b757600080fd5b506102df7f000000000000000000000000000000000000000000000000000000000000000081565b6040516001600160a01b03909116815260200161015b565b34801561030357600080fd5b506101b66201068081565b34801561031a57600080fd5b5061014f610329366004611005565b610a5b565b34801561033a57600080fd5b506101b6600081565b34801561034f57600080fd5b506101b661035e3660046110a6565b6001600160a01b031660009081526003602052604090205490565b34801561038557600080fd5b506101b66103943660046110a6565b6001600160a01b031660009081526002602052604090205490565b3480156103bb57600080fd5b506101b66201e5f081565b3480156103d257600080fd5b506101846103e1366004611005565b610a84565b610184610aaa565b3480156103fa57600080fd5b506101b67f000000000000000000000000000000000000000000000000000000000000000081565b34801561042e57600080fd5b506102df61043d366004611005565b610b08565b60006001600160e01b03198216637965db0b60e01b148061047357506301ffc9a760e01b6001600160e01b03198316145b92915050565b7ffc8737ab85eb45125971625a9ebdb75cc78e01d5c1fa80c4c6e5203f47bc4fab6104a48133610bd3565b60006104b08587610b08565b6001600160a01b038088166000908152600160208181526040808420948a168452938152918390208351808501909452805480855291015491830182905292935090916105019187918591906108b4565b6040516307dc859960e51b81526001600160a01b038881166004830152602482018890527f0000000000000000000000000000000000000000000000000000000000000000919082169063fb90b32090604401600060405180830381600087803b15801561056e57600080fd5b505af1158015610582573d6000803e3d6000fd5b5050505060006105966201e5f08a88610c37565b604080518281526001600160a01b03808d166020830152808a169282019290925290861660608201529091507f3adffed1f060326e210528415e21baeda3c987e664aa99130473d2ef475d38d3906080015b60405180910390a1505050505050505050565b6000828152602081905260409020600101546106178133610bd3565b6106218383610cd4565b505050565b7ffc8737ab85eb45125971625a9ebdb75cc78e01d5c1fa80c4c6e5203f47bc4fab6106518133610bd3565b600061065d8587610b08565b6001600160a01b038088166000908152600160208181526040808420948a168452938152918390208351808501909452805480855291015491830182905292935090916106ae9187918591906108b4565b604051633ef1336760e01b81526001600160a01b038681166004830152839190821690633ef1336790602401600060405180830381600087803b1580156106f457600080fd5b505af1158015610708573d6000803e3d6000fd5b50505050600061071c620106808a88610c37565b604080518281526001600160a01b03808d166020830152808a169282019290925290861660608201529091507fdc6c81f33d9899beb3fb4256b559a5b227189db0948b960c603da479f2867d8d906080016105e8565b6001600160a01b03811633146107e75760405162461bcd60e51b815260206004820152602f60248201527f416363657373436f6e74726f6c3a2063616e206f6e6c792072656e6f756e636560448201526e103937b632b9903337b91039b2b63360891b60648201526084015b60405180910390fd5b6107f18282610d58565b5050565b3360009081526003602052604090205481111561084b5760405162461bcd60e51b81526020600482015260146024820152734e6f7420656e6f75676820636c61696d61626c6560601b60448201526064016107de565b604051339082156108fc029083906000818181858888f19350505050158015610878573d6000803e3d6000fd5b50604080513481523360208201527f6aa3eac93d079e5e100b1029be716caa33586c96aa4baac390669fb5c2a21212910160405180910390a150565b600082116108ef5760405162461bcd60e51b815260206004820152600860248201526704d696e20697320360c41b60448201526064016107de565b3a81101561092f5760405162461bcd60e51b815260206004820152600d60248201526c4d61782067617320707269636560981b60448201526064016107de565b6040516370a0823160e01b81526001600160a01b038481166004830152859184918316906370a0823190602401602060405180830381865afa158015610979573d6000803e3d6000fd5b505050506040513d601f19601f8201168201806040525081019061099d91906110c1565b10156109d85760405162461bcd60e51b815260206004820152600a6024820152694d696e20746f6b656e7360b01b60448201526064016107de565b5050505050565b3360008181526001602081815260408084206001600160a01b0389168086529083529381902092830187905585835580519485529084019290925290820184905260608201839052907f1a538fca982d1c174f4edc88d83e386d7075668c7d17a3d9ade6f646c6070f5e9060800160405180910390a150505050565b6000918252602082815260408084206001600160a01b0393909316845291905290205460ff1690565b600082815260208190526040902060010154610aa08133610bd3565b6106218383610d58565b3360009081526002602052604081208054349290610ac99084906110f0565b9091555050604080513481523360208201527f48996614f3380f3dcd5a2d2e6eaddfd66207ff3457fee339e09b4735bc9ec958910160405180910390a1565b604080516bffffffffffffffffffffffff19606084811b82166020808501919091526034808501889052855180860390910181526054850186528051908201206001600160f81b031960748601527f000000000000000000000000000000000000000000000000000000000000000090921b909216607584015260898301527f000000000000000000000000000000000000000000000000000000000000000060a9808401919091528351808403909101815260c990920190925280519101206000905b9392505050565b610bdd8282610a5b565b6107f157610bf5816001600160a01b03166014610dbd565b610c00836020610dbd565b604051602001610c11929190611138565b60408051601f198184030181529082905262461bcd60e51b82526107de916004016111ad565b6001600160a01b0382166000908152600260205260409020543a840290811115610c995760405162461bcd60e51b81526020600482015260136024820152724e6f7420656e6f75676820636170616369747960681b60448201526064016107de565b6001600160a01b0392831660009081526002602090815260408083208054859003905593909416815260039093529120805482019055919050565b610cde8282610a5b565b6107f1576000828152602081815260408083206001600160a01b03851684529091529020805460ff19166001179055610d143390565b6001600160a01b0316816001600160a01b0316837f2f8788117e7eff1d82e926ec794901d17c78024a50270940304540a733656f0d60405160405180910390a45050565b610d628282610a5b565b156107f1576000828152602081815260408083206001600160a01b0385168085529252808320805460ff1916905551339285917ff6391f5c32d9c69d2a47ea670b442974b53935d1edc7fd64eb21e047a839171b9190a45050565b60606000610dcc8360026111e0565b610dd79060026110f0565b67ffffffffffffffff811115610def57610def6111ff565b6040519080825280601f01601f191660200182016040528015610e19576020820181803683370190505b509050600360fc1b81600081518110610e3457610e34611215565b60200101906001600160f81b031916908160001a905350600f60fb1b81600181518110610e6357610e63611215565b60200101906001600160f81b031916908160001a9053506000610e878460026111e0565b610e929060016110f0565b90505b6001811115610f0a576f181899199a1a9b1b9c1cb0b131b232b360811b85600f1660108110610ec657610ec6611215565b1a60f81b828281518110610edc57610edc611215565b60200101906001600160f81b031916908160001a90535060049490941c93610f038161122b565b9050610e95565b508315610bcc5760405162461bcd60e51b815260206004820181905260248201527f537472696e67733a20686578206c656e67746820696e73756666696369656e7460448201526064016107de565b600060208284031215610f6b57600080fd5b81356001600160e01b031981168114610bcc57600080fd5b80356001600160a01b0381168114610f9a57600080fd5b919050565b60008060008060808587031215610fb557600080fd5b610fbe85610f83565b935060208501359250610fd360408601610f83565b9150610fe160608601610f83565b905092959194509250565b600060208284031215610ffe57600080fd5b5035919050565b6000806040838503121561101857600080fd5b8235915061102860208401610f83565b90509250929050565b6000806000806080858703121561104757600080fd5b61105085610f83565b935061105e60208601610f83565b93969395505050506040820135916060013590565b60008060006060848603121561108857600080fd5b61109184610f83565b95602085013595506040909401359392505050565b6000602082840312156110b857600080fd5b610bcc82610f83565b6000602082840312156110d357600080fd5b5051919050565b634e487b7160e01b600052601160045260246000fd5b60008219821115611103576111036110da565b500190565b60005b8381101561112357818101518382015260200161110b565b83811115611132576000848401525b50505050565b7f416363657373436f6e74726f6c3a206163636f756e7420000000000000000000815260008351611170816017850160208801611108565b7001034b99036b4b9b9b4b733903937b6329607d1b60179184019182015283516111a1816028840160208801611108565b01602801949350505050565b60208152600082518060208401526111cc816040850160208701611108565b601f01601f19169190910160400192915050565b60008160001904831182151516156111fa576111fa6110da565b500290565b634e487b7160e01b600052604160045260246000fd5b634e487b7160e01b600052603260045260246000fd5b60008161123a5761123a6110da565b50600019019056fea26469706673582212201c315afb1a9f300fc05fc010f116a65c3f34228b4261abe32da2cb22c70538b864736f6c634300080a0033",
  "linkReferences": {},
  "deployedLinkReferences": {}
}