{
  "_format": "hh-sol-artifact-1",
  "contractName": "GasStation",
  "sourceName": "contracts/GasStation.sol",
  "abi": [
    {
      "inputs": [
        {
          "internalType": "address",
          "name": "_forwarderFactory",
          "type": "address"
        },
        {
          "internalType": "bytes32",
          "name": "_forwarderBytecodeHash",
          "type": "bytes32"
        }
      ],
      "stateMutability": "nonpayable",
      "type": "constructor"
    },
    {
      "anonymous": false,
      "inputs": [
        {
          "indexed": false,
          "internalType": "uint256",
          "name": "value",
          "type": "uint256"
        },
        {
          "indexed": false,
          "internalType": "address",
          "name": "parent",
          "type": "address"
        }
      ],
      "name": "Claimed",
      "type": "event"
    },
    {
      "anonymous": false,
      "inputs": [
        {
          "indexed": false,
          "internalType": "uint256",
          "name": "value",
          "type": "uint256"
        },
        {
          "indexed": false,
          "internalType": "address",
          "name": "parent",
          "type": "address"
        },
        {
          "indexed": false,
          "internalType": "address",
          "name": "keeper",
          "type": "address"
        },
        {
          "indexed": false,
          "internalType": "address",
          "name": "forwarder",
          "type": "address"
        }
      ],
      "name": "CreateConsumed",
      "type": "event"
    },
    {
      "anonymous": false,
      "inputs": [
        {
          "indexed": false,
          "internalType": "uint256",
          "name": "value",
          "type": "uint256"
        },
        {
          "indexed": false,
          "internalType": "address",
          "name": "parent",
          "type": "address"
        }
      ],
      "name": "Filled",
      "type": "event"
    },
    {
      "anonymous": false,
      "inputs": [
        {
          "indexed": false,
          "internalType": "uint256",
          "name": "value",
          "type": "uint256"
        },
        {
          "indexed": false,
          "internalType": "address",
          "name": "parent",
          "type": "address"
        },
        {
          "indexed": false,
          "internalType": "address",
          "name": "keeper",
          "type": "address"
        },
        {
          "indexed": false,
          "internalType": "address",
          "name": "forwarder",
          "type": "address"
        }
      ],
      "name": "FlushConsumed",
      "type": "event"
    },
    {
      "anonymous": false,
      "inputs": [
        {
          "indexed": true,
          "internalType": "bytes32",
          "name": "role",
          "type": "bytes32"
        },
        {
          "indexed": true,
          "internalType": "bytes32",
          "name": "previousAdminRole",
          "type": "bytes32"
        },
        {
          "indexed": true,
          "internalType": "bytes32",
          "name": "newAdminRole",
          "type": "bytes32"
        }
      ],
      "name": "RoleAdminChanged",
      "type": "event"
    },
    {
      "anonymous": false,
      "inputs": [
        {
          "indexed": true,
          "internalType": "bytes32",
          "name": "role",
          "type": "bytes32"
        },
        {
          "indexed": true,
          "internalType": "address",
          "name": "account",
          "type": "address"
        },
        {
          "indexed": true,
          "internalType": "address",
          "name": "sender",
          "type": "address"
        }
      ],
      "name": "RoleGranted",
      "type": "event"
    },
    {
      "anonymous": false,
      "inputs": [
        {
          "indexed": true,
          "internalType": "bytes32",
          "name": "role",
          "type": "bytes32"
        },
        {
          "indexed": true,
          "internalType": "address",
          "name": "account",
          "type": "address"
        },
        {
          "indexed": true,
          "internalType": "address",
          "name": "sender",
          "type": "address"
        }
      ],
      "name": "RoleRevoked",
      "type": "event"
    },
    {
      "anonymous": false,
      "inputs": [
        {
          "indexed": false,
          "internalType": "address",
          "name": "parent",
          "type": "address"
        },
        {
          "indexed": false,
          "internalType": "address",
          "name": "token",
          "type": "address"
        }
      ],
      "name": "WhitelistedAddressAdded",
      "type": "event"
    },
    {
      "anonymous": false,
      "inputs": [
        {
          "indexed": false,
          "internalType": "address",
          "name": "parent",
          "type": "address"
        },
        {
          "indexed": false,
          "internalType": "address",
          "name": "token",
          "type": "address"
        }
      ],
      "name": "WhitelistedAddressRemoved",
      "type": "event"
    },
    {
      "anonymous": false,
      "inputs": [
        {
          "indexed": false,
          "internalType": "address",
          "name": "parent",
          "type": "address"
        },
        {
          "indexed": false,
          "internalType": "address",
          "name": "token",
          "type": "address"
        }
      ],
      "name": "WhitelistedAssetAdded",
      "type": "event"
    },
    {
      "anonymous": false,
      "inputs": [
        {
          "indexed": false,
          "internalType": "address",
          "name": "parent",
          "type": "address"
        },
        {
          "indexed": false,
          "internalType": "address",
          "name": "token",
          "type": "address"
        }
      ],
      "name": "WhitelistedAssetRemoved",
      "type": "event"
    },
    {
      "inputs": [],
      "name": "DEFAULT_ADMIN_ROLE",
      "outputs": [
        {
          "internalType": "bytes32",
          "name": "",
          "type": "bytes32"
        }
      ],
      "stateMutability": "view",
      "type": "function"
    },
    {
      "inputs": [],
      "name": "KEEPER_ROLE",
      "outputs": [
        {
          "internalType": "bytes32",
          "name": "",
          "type": "bytes32"
        }
      ],
      "stateMutability": "view",
      "type": "function"
    },
    {
      "inputs": [
        {
          "internalType": "address",
          "name": "value",
          "type": "address"
        }
      ],
      "name": "addToWhitelistedAddresses",
      "outputs": [],
      "stateMutability": "nonpayable",
      "type": "function"
    },
    {
      "inputs": [
        {
          "internalType": "address",
          "name": "tokenContractAddress",
          "type": "address"
        }
      ],
      "name": "addToWhitelistedAssets",
      "outputs": [],
      "stateMutability": "nonpayable",
      "type": "function"
    },
    {
      "inputs": [
        {
          "internalType": "uint256",
          "name": "value",
          "type": "uint256"
        }
      ],
      "name": "claim",
      "outputs": [],
      "stateMutability": "payable",
      "type": "function"
    },
    {
      "inputs": [
        {
          "internalType": "bytes32",
          "name": "salt",
          "type": "bytes32"
        },
        {
          "internalType": "address",
          "name": "_parent",
          "type": "address"
        }
      ],
      "name": "computeForwarderAddress",
      "outputs": [
        {
          "internalType": "address",
          "name": "",
          "type": "address"
        }
      ],
      "stateMutability": "view",
      "type": "function"
    },
    {
      "inputs": [
        {
          "internalType": "address",
          "name": "parent",
          "type": "address"
        },
        {
          "internalType": "bytes32",
          "name": "forwarderSalt",
          "type": "bytes32"
        },
        {
          "internalType": "address",
          "name": "keeper",
          "type": "address"
        },
        {
          "internalType": "uint256",
          "name": "keeperExepectedComsumedGas",
          "type": "uint256"
        }
      ],
      "name": "createForwarder",
      "outputs": [],
      "stateMutability": "nonpayable",
      "type": "function"
    },
    {
      "inputs": [
        {
          "internalType": "address",
          "name": "parent",
          "type": "address"
        },
        {
          "internalType": "bytes32",
          "name": "forwarderSalt",
          "type": "bytes32"
        },
        {
          "internalType": "address",
          "name": "tokenContractAddress",
          "type": "address"
        },
        {
          "internalType": "address",
          "name": "keeper",
          "type": "address"
        },
        {
          "internalType": "uint256",
          "name": "keeperExepectedComsumedGas",
          "type": "uint256"
        }
      ],
      "name": "createForwarderTokens",
      "outputs": [],
      "stateMutability": "nonpayable",
      "type": "function"
    },
    {
      "inputs": [],
      "name": "fill",
      "outputs": [],
      "stateMutability": "payable",
      "type": "function"
    },
    {
      "inputs": [
        {
          "internalType": "address",
          "name": "parent",
          "type": "address"
        },
        {
          "internalType": "bytes32",
          "name": "forwarderSalt",
          "type": "bytes32"
        },
        {
          "internalType": "address",
          "name": "keeper",
          "type": "address"
        },
        {
          "internalType": "address",
          "name": "dest",
          "type": "address"
        },
        {
          "internalType": "uint256",
          "name": "keeperExepectedComsumedGas",
          "type": "uint256"
        }
      ],
      "name": "flush",
      "outputs": [],
      "stateMutability": "nonpayable",
      "type": "function"
    },
    {
      "inputs": [
        {
          "internalType": "address",
          "name": "parent",
          "type": "address"
        },
        {
          "internalType": "bytes32",
          "name": "forwarderSalt",
          "type": "bytes32"
        },
        {
          "internalType": "address",
          "name": "tokenContractAddress",
          "type": "address"
        },
        {
          "internalType": "address",
          "name": "keeper",
          "type": "address"
        },
        {
          "internalType": "address",
          "name": "dest",
          "type": "address"
        },
        {
          "internalType": "uint256",
          "name": "keeperExepectedComsumedGas",
          "type": "uint256"
        }
      ],
      "name": "flushTokens",
      "outputs": [],
      "stateMutability": "nonpayable",
      "type": "function"
    },
    {
      "inputs": [],
      "name": "forwarderBytecodeHash",
      "outputs": [
        {
          "internalType": "bytes32",
          "name": "",
          "type": "bytes32"
        }
      ],
      "stateMutability": "view",
      "type": "function"
    },
    {
      "inputs": [],
      "name": "forwarderFactory",
      "outputs": [
        {
          "internalType": "address",
          "name": "",
          "type": "address"
        }
      ],
      "stateMutability": "view",
      "type": "function"
    },
    {
      "inputs": [
        {
          "internalType": "address",
          "name": "parent",
          "type": "address"
        }
      ],
      "name": "getCapacity",
      "outputs": [
        {
          "internalType": "uint256",
          "name": "",
          "type": "uint256"
        }
      ],
      "stateMutability": "view",
      "type": "function"
    },
    {
      "inputs": [
        {
          "internalType": "address",
          "name": "keeper",
          "type": "address"
        }
      ],
      "name": "getClaimable",
      "outputs": [
        {
          "internalType": "uint256",
          "name": "",
          "type": "uint256"
        }
      ],
      "stateMutability": "view",
      "type": "function"
    },
    {
      "inputs": [
        {
          "internalType": "bytes32",
          "name": "role",
          "type": "bytes32"
        }
      ],
      "name": "getRoleAdmin",
      "outputs": [
        {
          "internalType": "bytes32",
          "name": "",
          "type": "bytes32"
        }
      ],
      "stateMutability": "view",
      "type": "function"
    },
    {
      "inputs": [
        {
          "internalType": "bytes32",
          "name": "role",
          "type": "bytes32"
        },
        {
          "internalType": "address",
          "name": "account",
          "type": "address"
        }
      ],
      "name": "grantRole",
      "outputs": [],
      "stateMutability": "nonpayable",
      "type": "function"
    },
    {
      "inputs": [
        {
          "internalType": "bytes32",
          "name": "role",
          "type": "bytes32"
        },
        {
          "internalType": "address",
          "name": "account",
          "type": "address"
        }
      ],
      "name": "hasRole",
      "outputs": [
        {
          "internalType": "bool",
          "name": "",
          "type": "bool"
        }
      ],
      "stateMutability": "view",
      "type": "function"
    },
    {
      "inputs": [
        {
          "internalType": "address",
          "name": "parent",
          "type": "address"
        },
        {
          "internalType": "address",
          "name": "value",
          "type": "address"
        }
      ],
      "name": "isAddressWhitelisted",
      "outputs": [
        {
          "internalType": "bool",
          "name": "",
          "type": "bool"
        }
      ],
      "stateMutability": "view",
      "type": "function"
    },
    {
      "inputs": [
        {
          "internalType": "address",
          "name": "parent",
          "type": "address"
        },
        {
          "internalType": "address",
          "name": "forwarderAddress",
          "type": "address"
        }
      ],
      "name": "isReadyOrAbort",
      "outputs": [],
      "stateMutability": "view",
      "type": "function"
    },
    {
      "inputs": [
        {
          "internalType": "address",
          "name": "parent",
          "type": "address"
        },
        {
          "internalType": "address",
          "name": "tokenContractAddress",
          "type": "address"
        },
        {
          "internalType": "address",
          "name": "forwarderAddress",
          "type": "address"
        }
      ],
      "name": "isTokenReadyOrAbort",
      "outputs": [],
      "stateMutability": "view",
      "type": "function"
    },
    {
      "inputs": [
        {
          "internalType": "address",
          "name": "value",
          "type": "address"
        }
      ],
      "name": "removeWhitelistedAddress",
      "outputs": [],
      "stateMutability": "nonpayable",
      "type": "function"
    },
    {
      "inputs": [
        {
          "internalType": "address",
          "name": "tokenContractAddress",
          "type": "address"
        }
      ],
      "name": "removeWhitelistedAsset",
      "outputs": [],
      "stateMutability": "nonpayable",
      "type": "function"
    },
    {
      "inputs": [
        {
          "internalType": "bytes32",
          "name": "role",
          "type": "bytes32"
        },
        {
          "internalType": "address",
          "name": "account",
          "type": "address"
        }
      ],
      "name": "renounceRole",
      "outputs": [],
      "stateMutability": "nonpayable",
      "type": "function"
    },
    {
      "inputs": [
        {
          "internalType": "bytes32",
          "name": "role",
          "type": "bytes32"
        },
        {
          "internalType": "address",
          "name": "account",
          "type": "address"
        }
      ],
      "name": "revokeRole",
      "outputs": [],
      "stateMutability": "nonpayable",
      "type": "function"
    },
    {
      "inputs": [
        {
          "internalType": "bytes4",
          "name": "interfaceId",
          "type": "bytes4"
        }
      ],
      "name": "supportsInterface",
      "outputs": [
        {
          "internalType": "bool",
          "name": "",
          "type": "bool"
        }
      ],
      "stateMutability": "view",
      "type": "function"
    }
  ],
  "bytecode": "0x60c06040523480156200001157600080fd5b506040516200191738038062001917833981016040819052620000349162000127565b620000607ffc8737ab85eb45125971625a9ebdb75cc78e01d5c1fa80c4c6e5203f47bc4fab3362000077565b6001600160a01b0390911660805260a05262000163565b62000083828262000087565b5050565b6000828152602081815260408083206001600160a01b038516845290915290205460ff1662000083576000828152602081815260408083206001600160a01b03851684529091529020805460ff19166001179055620000e33390565b6001600160a01b0316816001600160a01b0316837f2f8788117e7eff1d82e926ec794901d17c78024a50270940304540a733656f0d60405160405180910390a45050565b600080604083850312156200013b57600080fd5b82516001600160a01b03811681146200015357600080fd5b6020939093015192949293505050565b60805160a051611772620001a5600039600081816105200152610f2801526000818161034201528181610b7301528181610c730152610ef701526117726000f3fe6080604052600436106101815760003560e01c80638874ce53116100d1578063b6dfcd8b1161008a578063d547741f11610064578063d547741f146104e6578063d9c55ce114610506578063dde848701461050e578063e7f8a03a1461054257600080fd5b8063b6dfcd8b14610470578063c3c20bc114610490578063d0110db6146104c657600080fd5b80638874ce531461037c57806388c81a421461039c57806391d14854146103bc578063a217fddf146103dc578063a583024b146103f1578063b31fd4e61461042757600080fd5b806336568abe1161013e5780636bf08dd6116101185780636bf08dd6146102d05780636d35d5f2146102f057806371c7a7811461031057806376c4f1301461033057600080fd5b806336568abe1461027d578063379607f51461029d578063530cd5ab146102b057600080fd5b806301ffc9a714610186578063248a9ca3146101bb5780632822b88b146101f95780632f2ff15d1461021b578063364bc15a1461023b578063364d1c2f1461025d575b600080fd5b34801561019257600080fd5b506101a66101a1366004611366565b610562565b60405190151581526020015b60405180910390f35b3480156101c757600080fd5b506101eb6101d6366004611390565b60009081526020819052604090206001015490565b6040519081526020016101b2565b34801561020557600080fd5b506102196102143660046113c5565b610599565b005b34801561022757600080fd5b506102196102363660046113f8565b610650565b34801561024757600080fd5b506101eb60008051602061171d83398151915281565b34801561026957600080fd5b5061021961027836600461141b565b61067b565b34801561028957600080fd5b506102196102983660046113f8565b610688565b6102196102ab366004611390565b610702565b3480156102bc57600080fd5b506102196102cb36600461141b565b6107c2565b3480156102dc57600080fd5b506102196102eb366004611436565b610824565b3480156102fc57600080fd5b5061021961030b36600461148b565b61090a565b34801561031c57600080fd5b5061021961032b3660046114ce565b610a25565b34801561033c57600080fd5b506103647f000000000000000000000000000000000000000000000000000000000000000081565b6040516001600160a01b0390911681526020016101b2565b34801561038857600080fd5b50610219610397366004611436565b610b15565b3480156103a857600080fd5b506102196103b7366004611534565b610c16565b3480156103c857600080fd5b506101a66103d73660046113f8565b610d28565b3480156103e857600080fd5b506101eb600081565b3480156103fd57600080fd5b506101eb61040c36600461141b565b6001600160a01b031660009081526004602052604090205490565b34801561043357600080fd5b506101a66104423660046113c5565b6001600160a01b03918216600090815260026020908152604080832093909416825291909152205460ff1690565b34801561047c57600080fd5b5061021961048b36600461141b565b610d51565b34801561049c57600080fd5b506101eb6104ab36600461141b565b6001600160a01b031660009081526003602052604090205490565b3480156104d257600080fd5b506102196104e136600461141b565b610db3565b3480156104f257600080fd5b506102196105013660046113f8565b610e18565b610219610e3e565b34801561051a57600080fd5b506101eb7f000000000000000000000000000000000000000000000000000000000000000081565b34801561054e57600080fd5b5061036461055d3660046113f8565b610ea7565b60006001600160e01b03198216637965db0b60e01b148061059357506301ffc9a760e01b6001600160e01b03198316145b92915050565b6001600160a01b038216600090815260016020908152604080832083805290915290205460ff166106025760405162461bcd60e51b815260206004820152600e60248201526d10dbda5b881dda1a5d195b1a5cdd60921b60448201526064015b60405180910390fd5b6000816001600160a01b0316311161064c5760405162461bcd60e51b815260206004820152600d60248201526c436f696e732062616c616e636560981b60448201526064016105f9565b5050565b60008281526020819052604090206001015461066c8133610f72565b6106768383610fd6565b505050565b610685338261105a565b50565b6001600160a01b03811633146106f85760405162461bcd60e51b815260206004820152602f60248201527f416363657373436f6e74726f6c3a2063616e206f6e6c792072656e6f756e636560448201526e103937b632b9903337b91039b2b63360891b60648201526084016105f9565b61064c82826110c8565b336000908152600460205260409020548111156107585760405162461bcd60e51b81526020600482015260146024820152734e6f7420656e6f75676820636c61696d61626c6560601b60448201526064016105f9565b604051339082156108fc029083906000818181858888f19350505050158015610785573d6000803e3d6000fd5b50604080513481523360208201527f6aa3eac93d079e5e100b1029be716caa33586c96aa4baac390669fb5c2a2121291015b60405180910390a150565b3360008181526002602090815260408083206001600160a01b03861680855290835292819020805460ff191690558051938452908301919091527ff21ed70e057c8b324559d7a28364bf372ff454226fb96e5e87b80c658a2a367191016107b7565b60008051602061171d83398151915261083d8133610f72565b60006108498688610ea7565b90506108558782610599565b604051633ce3b70d60e11b81526001600160a01b0385811660048301528291908216906379c76e1a90602401600060405180830381600087803b15801561089b57600080fd5b505af11580156108af573d6000803e3d6000fd5b5050505060006108c0858a8961112d565b90507fdc6c81f33d9899beb3fb4256b559a5b227189db0948b960c603da479f2867d8d818a89866040516108f79493929190611578565b60405180910390a1505050505050505050565b6001600160a01b0380841660009081526001602090815260408083209386168352929052205460ff166109745760405162461bcd60e51b815260206004820152601260248201527157686974656c697374656420746f6b656e7360701b60448201526064016105f9565b6040516370a0823160e01b81526001600160a01b0382811660048301528391908216906370a0823190602401602060405180830381865afa1580156109bd573d6000803e3d6000fd5b505050506040513d601f19601f820116820180604052508101906109e1919061159f565b610a1f5760405162461bcd60e51b815260206004820152600f60248201526e416464726573732062616c616e636560881b60448201526064016105f9565b50505050565b60008051602061171d833981519152610a3e8133610f72565b6000610a4a8789610ea7565b9050610a5788878361090a565b604051635ef680df60e01b81526001600160a01b0387811660048301528581166024830152829190821690635ef680df90604401600060405180830381600087803b158015610aa557600080fd5b505af1158015610ab9573d6000803e3d6000fd5b505050506000610aca858b8961112d565b90507fdc6c81f33d9899beb3fb4256b559a5b227189db0948b960c603da479f2867d8d818b8986604051610b019493929190611578565b60405180910390a150505050505050505050565b60008051602061171d833981519152610b2e8133610f72565b6000610b3a8688610ea7565b9050610b4787868361090a565b604051635aac7e7760e11b81526001600160a01b038881166004830152602482018890523060448301527f0000000000000000000000000000000000000000000000000000000000000000919082169063b558fcee90606401600060405180830381600087803b158015610bba57600080fd5b505af1158015610bce573d6000803e3d6000fd5b505050506000610bdf858a8861112d565b90507f3adffed1f060326e210528415e21baeda3c987e664aa99130473d2ef475d38d3818a88866040516108f79493929190611578565b60008051602061171d833981519152610c2f8133610f72565b6000610c3b8587610ea7565b9050610c478682610599565b604051635aac7e7760e11b81526001600160a01b038781166004830152602482018790523060448301527f0000000000000000000000000000000000000000000000000000000000000000919082169063b558fcee90606401600060405180830381600087803b158015610cba57600080fd5b505af1158015610cce573d6000803e3d6000fd5b505050506000610cdf85898861112d565b90507f3adffed1f060326e210528415e21baeda3c987e664aa99130473d2ef475d38d381898886604051610d169493929190611578565b60405180910390a15050505050505050565b6000918252602082815260408084206001600160a01b0393909316845291905290205460ff1690565b3360008181526001602090815260408083206001600160a01b03861680855290835292819020805460ff191690558051938452908301919091527f4860754ea002e41d845278b20cba40eef102adbbdc7353bce015d3759a2ad50191016107b7565b3360008181526001602081815260408084206001600160a01b03871680865290835293819020805460ff191690931790925581519384528301919091527f6a8d1009060b0419c7f1ff654dc8d48a5be800ca660e6e809948131fa514d7a991016107b7565b600082815260208190526040902060010154610e348133610f72565b61067683836110c8565b3360009081526003602052604081208054349290610e5d9084906115ce565b90915550610e6d9050338061105a565b604080513481523360208201527f48996614f3380f3dcd5a2d2e6eaddfd66207ff3457fee339e09b4735bc9ec958910160405180910390a1565b604080516bffffffffffffffffffffffff19606084811b82166020808501919091526034808501889052855180860390910181526054850186528051908201206001600160f81b031960748601527f000000000000000000000000000000000000000000000000000000000000000090921b909216607584015260898301527f000000000000000000000000000000000000000000000000000000000000000060a9808401919091528351808403909101815260c990920190925280519101206000905b9392505050565b610f7c8282610d28565b61064c57610f94816001600160a01b031660146111ca565b610f9f8360206111ca565b604051602001610fb0929190611612565b60408051601f198184030181529082905262461bcd60e51b82526105f991600401611687565b610fe08282610d28565b61064c576000828152602081815260408083206001600160a01b03851684529091529020805460ff191660011790556110163390565b6001600160a01b0316816001600160a01b0316837f2f8788117e7eff1d82e926ec794901d17c78024a50270940304540a733656f0d60405160405180910390a45050565b6001600160a01b03828116600081815260026020908152604080832094861680845294825291829020805460ff1916600117905581519283528201929092527ff21ed70e057c8b324559d7a28364bf372ff454226fb96e5e87b80c658a2a3671910160405180910390a15050565b6110d28282610d28565b1561064c576000828152602081815260408083206001600160a01b0385168085529252808320805460ff1916905551339285917ff6391f5c32d9c69d2a47ea670b442974b53935d1edc7fd64eb21e047a839171b9190a45050565b6001600160a01b0382166000908152600360205260409020543a84029081111561118f5760405162461bcd60e51b81526020600482015260136024820152724e6f7420656e6f75676820636170616369747960681b60448201526064016105f9565b6001600160a01b0392831660009081526003602090815260408083208054859003905593909416815260049093529120805482019055919050565b606060006111d98360026116ba565b6111e49060026115ce565b67ffffffffffffffff8111156111fc576111fc6116d9565b6040519080825280601f01601f191660200182016040528015611226576020820181803683370190505b509050600360fc1b81600081518110611241576112416116ef565b60200101906001600160f81b031916908160001a905350600f60fb1b81600181518110611270576112706116ef565b60200101906001600160f81b031916908160001a90535060006112948460026116ba565b61129f9060016115ce565b90505b6001811115611317576f181899199a1a9b1b9c1cb0b131b232b360811b85600f16601081106112d3576112d36116ef565b1a60f81b8282815181106112e9576112e96116ef565b60200101906001600160f81b031916908160001a90535060049490941c9361131081611705565b90506112a2565b508315610f6b5760405162461bcd60e51b815260206004820181905260248201527f537472696e67733a20686578206c656e67746820696e73756666696369656e7460448201526064016105f9565b60006020828403121561137857600080fd5b81356001600160e01b031981168114610f6b57600080fd5b6000602082840312156113a257600080fd5b5035919050565b80356001600160a01b03811681146113c057600080fd5b919050565b600080604083850312156113d857600080fd5b6113e1836113a9565b91506113ef602084016113a9565b90509250929050565b6000806040838503121561140b57600080fd5b823591506113ef602084016113a9565b60006020828403121561142d57600080fd5b610f6b826113a9565b600080600080600060a0868803121561144e57600080fd5b611457866113a9565b94506020860135935061146c604087016113a9565b925061147a606087016113a9565b949793965091946080013592915050565b6000806000606084860312156114a057600080fd5b6114a9846113a9565b92506114b7602085016113a9565b91506114c5604085016113a9565b90509250925092565b60008060008060008060c087890312156114e757600080fd5b6114f0876113a9565b955060208701359450611505604088016113a9565b9350611513606088016113a9565b9250611521608088016113a9565b915060a087013590509295509295509295565b6000806000806080858703121561154a57600080fd5b611553856113a9565b935060208501359250611568604086016113a9565b9396929550929360600135925050565b9384526001600160a01b039283166020850152908216604084015216606082015260800190565b6000602082840312156115b157600080fd5b5051919050565b634e487b7160e01b600052601160045260246000fd5b600082198211156115e1576115e16115b8565b500190565b60005b838110156116015781810151838201526020016115e9565b83811115610a1f5750506000910152565b7f416363657373436f6e74726f6c3a206163636f756e742000000000000000000081526000835161164a8160178501602088016115e6565b7001034b99036b4b9b9b4b733903937b6329607d1b601791840191820152835161167b8160288401602088016115e6565b01602801949350505050565b60208152600082518060208401526116a68160408501602087016115e6565b601f01601f19169190910160400192915050565b60008160001904831182151516156116d4576116d46115b8565b500290565b634e487b7160e01b600052604160045260246000fd5b634e487b7160e01b600052603260045260246000fd5b600081611714576117146115b8565b50600019019056fefc8737ab85eb45125971625a9ebdb75cc78e01d5c1fa80c4c6e5203f47bc4faba2646970667358221220b666dc95c66bb6aca89622f0827eaab71a83311eeee34585abb9a7b4d9f440d964736f6c634300080a0033",
  "linkReferences": {},
  "deployedLinkReferences": {}
}