{
  "_format": "hh-sol-artifact-1",
  "contractName": "GasStation",
  "sourceName": "contracts/GasStation.sol",
  "abi": [
    {
      "inputs": [
        {
          "internalType": "address",
          "name": "_forwarderFactory",
          "type": "address"
        },
        {
          "internalType": "bytes32",
          "name": "_forwarderBytecodeHash",
          "type": "bytes32"
        }
      ],
      "stateMutability": "nonpayable",
      "type": "constructor"
    },
    {
      "anonymous": false,
      "inputs": [
        {
          "indexed": false,
          "internalType": "uint256",
          "name": "value",
          "type": "uint256"
        },
        {
          "indexed": false,
          "internalType": "address",
          "name": "parent",
          "type": "address"
        }
      ],
      "name": "Claimed",
      "type": "event"
    },
    {
      "anonymous": false,
      "inputs": [
        {
          "indexed": false,
          "internalType": "uint256",
          "name": "value",
          "type": "uint256"
        },
        {
          "indexed": false,
          "internalType": "address",
          "name": "parent",
          "type": "address"
        },
        {
          "indexed": false,
          "internalType": "address",
          "name": "keeperAddress",
          "type": "address"
        }
      ],
      "name": "Consumed",
      "type": "event"
    },
    {
      "anonymous": false,
      "inputs": [
        {
          "indexed": false,
          "internalType": "uint256",
          "name": "value",
          "type": "uint256"
        },
        {
          "indexed": false,
          "internalType": "address",
          "name": "parent",
          "type": "address"
        }
      ],
      "name": "Filled",
      "type": "event"
    },
    {
      "inputs": [
        {
          "internalType": "uint256",
          "name": "value",
          "type": "uint256"
        }
      ],
      "name": "claim",
      "outputs": [],
      "stateMutability": "payable",
      "type": "function"
    },
    {
      "inputs": [
        {
          "internalType": "bytes32",
          "name": "salt",
          "type": "bytes32"
        },
        {
          "internalType": "address",
          "name": "_parent",
          "type": "address"
        }
      ],
      "name": "computeForwarderAddress",
      "outputs": [
        {
          "internalType": "address",
          "name": "",
          "type": "address"
        }
      ],
      "stateMutability": "view",
      "type": "function"
    },
    {
      "inputs": [
        {
          "internalType": "address",
          "name": "parent",
          "type": "address"
        },
        {
          "internalType": "bytes32",
          "name": "forwarderSalt",
          "type": "bytes32"
        },
        {
          "internalType": "address",
          "name": "tokenContractAddress",
          "type": "address"
        },
        {
          "internalType": "address",
          "name": "keeper",
          "type": "address"
        }
      ],
      "name": "createForwarder",
      "outputs": [],
      "stateMutability": "nonpayable",
      "type": "function"
    },
    {
      "inputs": [],
      "name": "fill",
      "outputs": [],
      "stateMutability": "payable",
      "type": "function"
    },
    {
      "inputs": [
        {
          "internalType": "address",
          "name": "parent",
          "type": "address"
        },
        {
          "internalType": "bytes32",
          "name": "forwarderSalt",
          "type": "bytes32"
        },
        {
          "internalType": "address",
          "name": "tokenContractAddress",
          "type": "address"
        },
        {
          "internalType": "address",
          "name": "keeper",
          "type": "address"
        }
      ],
      "name": "flush",
      "outputs": [],
      "stateMutability": "nonpayable",
      "type": "function"
    },
    {
      "inputs": [],
      "name": "forwarderBytecodeHash",
      "outputs": [
        {
          "internalType": "bytes32",
          "name": "",
          "type": "bytes32"
        }
      ],
      "stateMutability": "view",
      "type": "function"
    },
    {
      "inputs": [],
      "name": "forwarderFactory",
      "outputs": [
        {
          "internalType": "address",
          "name": "",
          "type": "address"
        }
      ],
      "stateMutability": "view",
      "type": "function"
    },
    {
      "inputs": [
        {
          "internalType": "address",
          "name": "parent",
          "type": "address"
        }
      ],
      "name": "getCapacity",
      "outputs": [
        {
          "internalType": "uint256",
          "name": "",
          "type": "uint256"
        }
      ],
      "stateMutability": "view",
      "type": "function"
    },
    {
      "inputs": [
        {
          "internalType": "address",
          "name": "keeper",
          "type": "address"
        }
      ],
      "name": "getClaimable",
      "outputs": [
        {
          "internalType": "uint256",
          "name": "",
          "type": "uint256"
        }
      ],
      "stateMutability": "view",
      "type": "function"
    },
    {
      "inputs": [
        {
          "internalType": "address",
          "name": "tokenContractAddress",
          "type": "address"
        },
        {
          "internalType": "address",
          "name": "forwarderAddress",
          "type": "address"
        },
        {
          "internalType": "uint256",
          "name": "min",
          "type": "uint256"
        },
        {
          "internalType": "uint256",
          "name": "maxGasPrice",
          "type": "uint256"
        }
      ],
      "name": "isReadyOrAbort",
      "outputs": [],
      "stateMutability": "view",
      "type": "function"
    },
    {
      "inputs": [
        {
          "internalType": "address",
          "name": "tokenContractAddress",
          "type": "address"
        },
        {
          "internalType": "uint256",
          "name": "min",
          "type": "uint256"
        },
        {
          "internalType": "uint256",
          "name": "maxGasPrice",
          "type": "uint256"
        }
      ],
      "name": "setTokenConfig",
      "outputs": [],
      "stateMutability": "nonpayable",
      "type": "function"
    }
  ],
  "bytecode": "0x60c060405234801561001057600080fd5b50604051610aab380380610aab83398101604081905261002f91610045565b6001600160a01b0390911660805260a05261007f565b6000806040838503121561005857600080fd5b82516001600160a01b038116811461006f57600080fd5b6020939093015192949293505050565b60805160a0516109f26100b960003960008181610246015261071a0152600081816101730152818161030c01526106e901526109f26000f3fe60806040526004361061009c5760003560e01c806376c4f1301161006457806376c4f13014610161578063a583024b146101b2578063c3c20bc1146101f6578063d9c55ce11461022c578063dde8487014610234578063e7f8a03a1461026857600080fd5b80631d9bb26d146100a1578063351aa887146100c3578063379607f5146100e357806338f99cb5146100f657806357337a9214610116575b600080fd5b3480156100ad57600080fd5b506100c16100bc36600461085b565b610288565b005b3480156100cf57600080fd5b506100c16100de36600461085b565b610382565b6100c16100f13660046108a8565b61044c565b34801561010257600080fd5b506100c16101113660046108c1565b610510565b34801561012257600080fd5b506100c1610131366004610903565b336000908152602081815260408083206001600160a01b0396909616835294905292909220600181019190915555565b34801561016d57600080fd5b506101957f000000000000000000000000000000000000000000000000000000000000000081565b6040516001600160a01b0390911681526020015b60405180910390f35b3480156101be57600080fd5b506101e86101cd366004610936565b6001600160a01b031660009081526002602052604090205490565b6040519081526020016101a9565b34801561020257600080fd5b506101e8610211366004610936565b6001600160a01b031660009081526001602052604090205490565b6100c161063b565b34801561024057600080fd5b506101e87f000000000000000000000000000000000000000000000000000000000000000081565b34801561027457600080fd5b50610195610283366004610951565b610699565b60006102948486610699565b6001600160a01b038087166000908152602081815260408083209388168352928152908290208251808401909352805480845260019091015491830182905292935090916102e6918691859190610510565b6040516307dc859960e51b81526001600160a01b038781166004830152602482018790527f0000000000000000000000000000000000000000000000000000000000000000919082169063fb90b32090604401600060405180830381600087803b15801561035357600080fd5b505af1158015610367573d6000803e3d6000fd5b505050506103796201dc908886610764565b50505050505050565b600061038e8486610699565b6001600160a01b038087166000908152602081815260408083209388168352928152908290208251808401909352805480845260019091015491830182905292935090916103e0918691859190610510565b604051633ef1336760e01b81526001600160a01b038581166004830152839190821690633ef1336790602401600060405180830381600087803b15801561042657600080fd5b505af115801561043a573d6000803e3d6000fd5b50505050610379620144068886610764565b336000908152600260205260409020548111156104a75760405162461bcd60e51b81526020600482015260146024820152734e6f7420656e6f75676820636c61696d61626c6560601b60448201526064015b60405180910390fd5b604051339082156108fc029083906000818181858888f193505050501580156104d4573d6000803e3d6000fd5b50604080513481523360208201527f6aa3eac93d079e5e100b1029be716caa33586c96aa4baac390669fb5c2a21212910160405180910390a150565b6000821161054b5760405162461bcd60e51b815260206004820152600860248201526704d696e20697320360c41b604482015260640161049e565b3a81101561058b5760405162461bcd60e51b815260206004820152600d60248201526c4d61782067617320707269636560981b604482015260640161049e565b6040516370a0823160e01b81526001600160a01b038481166004830152859184918316906370a0823190602401602060405180830381865afa1580156105d5573d6000803e3d6000fd5b505050506040513d601f19601f820116820180604052508101906105f9919061097d565b10156106345760405162461bcd60e51b815260206004820152600a6024820152694d696e20746f6b656e7360b01b604482015260640161049e565b5050505050565b336000908152600160205260408120805434929061065a908490610996565b9091555050604080513481523360208201527f48996614f3380f3dcd5a2d2e6eaddfd66207ff3457fee339e09b4735bc9ec958910160405180910390a1565b604080516bffffffffffffffffffffffff19606084811b82166020808501919091526034808501889052855180860390910181526054850186528051908201206001600160f81b031960748601527f000000000000000000000000000000000000000000000000000000000000000090921b909216607584015260898301527f000000000000000000000000000000000000000000000000000000000000000060a9808401919091528351808403909101815260c990920190925280519101206000905b9392505050565b6001600160a01b0382166000908152600160205260409020543a8402908111156107c65760405162461bcd60e51b81526020600482015260136024820152724e6f7420656e6f75676820636170616369747960681b604482015260640161049e565b6001600160a01b0383811660008181526001602090815260408083208054879003905593861680835260028252918490208054860190558351858152908101929092528183015290517f75d42b58d8d1e7cfde6595571f79846597dad98c42dda36928207e6804732d799181900360600190a150505050565b80356001600160a01b038116811461085657600080fd5b919050565b6000806000806080858703121561087157600080fd5b61087a8561083f565b93506020850135925061088f6040860161083f565b915061089d6060860161083f565b905092959194509250565b6000602082840312156108ba57600080fd5b5035919050565b600080600080608085870312156108d757600080fd5b6108e08561083f565b93506108ee6020860161083f565b93969395505050506040820135916060013590565b60008060006060848603121561091857600080fd5b6109218461083f565b95602085013595506040909401359392505050565b60006020828403121561094857600080fd5b61075d8261083f565b6000806040838503121561096457600080fd5b823591506109746020840161083f565b90509250929050565b60006020828403121561098f57600080fd5b5051919050565b600082198211156109b757634e487b7160e01b600052601160045260246000fd5b50019056fea264697066735822122031d114612dbc247fe0dde55c7df63a37735d31651937af31e10af222405f785a64736f6c634300080a0033",
  "linkReferences": {},
  "deployedLinkReferences": {}
}