{
  "_format": "hh-sol-artifact-1",
  "contractName": "GasStation",
  "sourceName": "contracts/GasStation.sol",
  "abi": [
    {
      "inputs": [
        {
          "internalType": "address",
          "name": "_forwarderFactory",
          "type": "address"
        },
        {
          "internalType": "bytes32",
          "name": "_forwarderBytecodeHash",
          "type": "bytes32"
        }
      ],
      "stateMutability": "nonpayable",
      "type": "constructor"
    },
    {
      "anonymous": false,
      "inputs": [
        {
          "indexed": false,
          "internalType": "uint256",
          "name": "value",
          "type": "uint256"
        },
        {
          "indexed": false,
          "internalType": "address",
          "name": "parent",
          "type": "address"
        }
      ],
      "name": "Claimed",
      "type": "event"
    },
    {
      "anonymous": false,
      "inputs": [
        {
          "indexed": false,
          "internalType": "address",
          "name": "parent",
          "type": "address"
        },
        {
          "indexed": false,
          "internalType": "address",
          "name": "token",
          "type": "address"
        },
        {
          "indexed": false,
          "internalType": "uint256",
          "name": "min",
          "type": "uint256"
        },
        {
          "indexed": false,
          "internalType": "uint256",
          "name": "maxGasPrice",
          "type": "uint256"
        }
      ],
      "name": "ConfigSet",
      "type": "event"
    },
    {
      "anonymous": false,
      "inputs": [
        {
          "indexed": false,
          "internalType": "uint256",
          "name": "value",
          "type": "uint256"
        },
        {
          "indexed": false,
          "internalType": "address",
          "name": "parent",
          "type": "address"
        },
        {
          "indexed": false,
          "internalType": "address",
          "name": "keeperAddress",
          "type": "address"
        }
      ],
      "name": "CreateConsumed",
      "type": "event"
    },
    {
      "anonymous": false,
      "inputs": [
        {
          "indexed": false,
          "internalType": "uint256",
          "name": "value",
          "type": "uint256"
        },
        {
          "indexed": false,
          "internalType": "address",
          "name": "parent",
          "type": "address"
        }
      ],
      "name": "Filled",
      "type": "event"
    },
    {
      "anonymous": false,
      "inputs": [
        {
          "indexed": false,
          "internalType": "uint256",
          "name": "value",
          "type": "uint256"
        },
        {
          "indexed": false,
          "internalType": "address",
          "name": "parent",
          "type": "address"
        },
        {
          "indexed": false,
          "internalType": "address",
          "name": "keeperAddress",
          "type": "address"
        }
      ],
      "name": "FlushConsumed",
      "type": "event"
    },
    {
      "anonymous": false,
      "inputs": [
        {
          "indexed": true,
          "internalType": "bytes32",
          "name": "role",
          "type": "bytes32"
        },
        {
          "indexed": true,
          "internalType": "bytes32",
          "name": "previousAdminRole",
          "type": "bytes32"
        },
        {
          "indexed": true,
          "internalType": "bytes32",
          "name": "newAdminRole",
          "type": "bytes32"
        }
      ],
      "name": "RoleAdminChanged",
      "type": "event"
    },
    {
      "anonymous": false,
      "inputs": [
        {
          "indexed": true,
          "internalType": "bytes32",
          "name": "role",
          "type": "bytes32"
        },
        {
          "indexed": true,
          "internalType": "address",
          "name": "account",
          "type": "address"
        },
        {
          "indexed": true,
          "internalType": "address",
          "name": "sender",
          "type": "address"
        }
      ],
      "name": "RoleGranted",
      "type": "event"
    },
    {
      "anonymous": false,
      "inputs": [
        {
          "indexed": true,
          "internalType": "bytes32",
          "name": "role",
          "type": "bytes32"
        },
        {
          "indexed": true,
          "internalType": "address",
          "name": "account",
          "type": "address"
        },
        {
          "indexed": true,
          "internalType": "address",
          "name": "sender",
          "type": "address"
        }
      ],
      "name": "RoleRevoked",
      "type": "event"
    },
    {
      "inputs": [],
      "name": "DEFAULT_ADMIN_ROLE",
      "outputs": [
        {
          "internalType": "bytes32",
          "name": "",
          "type": "bytes32"
        }
      ],
      "stateMutability": "view",
      "type": "function"
    },
    {
      "inputs": [],
      "name": "KEEPER_CREATE_FORWARDER_EXPECTED_CONSUMED_GAS",
      "outputs": [
        {
          "internalType": "uint256",
          "name": "",
          "type": "uint256"
        }
      ],
      "stateMutability": "view",
      "type": "function"
    },
    {
      "inputs": [],
      "name": "KEEPER_FLUSH_EXPECTED_CONSUMED_GAS",
      "outputs": [
        {
          "internalType": "uint256",
          "name": "",
          "type": "uint256"
        }
      ],
      "stateMutability": "view",
      "type": "function"
    },
    {
      "inputs": [],
      "name": "KEEPER_ROLE",
      "outputs": [
        {
          "internalType": "bytes32",
          "name": "",
          "type": "bytes32"
        }
      ],
      "stateMutability": "view",
      "type": "function"
    },
    {
      "inputs": [
        {
          "internalType": "uint256",
          "name": "value",
          "type": "uint256"
        }
      ],
      "name": "claim",
      "outputs": [],
      "stateMutability": "payable",
      "type": "function"
    },
    {
      "inputs": [
        {
          "internalType": "bytes32",
          "name": "salt",
          "type": "bytes32"
        },
        {
          "internalType": "address",
          "name": "_parent",
          "type": "address"
        }
      ],
      "name": "computeForwarderAddress",
      "outputs": [
        {
          "internalType": "address",
          "name": "",
          "type": "address"
        }
      ],
      "stateMutability": "view",
      "type": "function"
    },
    {
      "inputs": [
        {
          "internalType": "address",
          "name": "parent",
          "type": "address"
        },
        {
          "internalType": "bytes32",
          "name": "forwarderSalt",
          "type": "bytes32"
        },
        {
          "internalType": "address",
          "name": "tokenContractAddress",
          "type": "address"
        },
        {
          "internalType": "address",
          "name": "keeper",
          "type": "address"
        }
      ],
      "name": "createForwarder",
      "outputs": [],
      "stateMutability": "nonpayable",
      "type": "function"
    },
    {
      "inputs": [],
      "name": "fill",
      "outputs": [],
      "stateMutability": "payable",
      "type": "function"
    },
    {
      "inputs": [
        {
          "internalType": "address",
          "name": "parent",
          "type": "address"
        },
        {
          "internalType": "bytes32",
          "name": "forwarderSalt",
          "type": "bytes32"
        },
        {
          "internalType": "address",
          "name": "tokenContractAddress",
          "type": "address"
        },
        {
          "internalType": "address",
          "name": "keeper",
          "type": "address"
        }
      ],
      "name": "flush",
      "outputs": [],
      "stateMutability": "nonpayable",
      "type": "function"
    },
    {
      "inputs": [],
      "name": "forwarderBytecodeHash",
      "outputs": [
        {
          "internalType": "bytes32",
          "name": "",
          "type": "bytes32"
        }
      ],
      "stateMutability": "view",
      "type": "function"
    },
    {
      "inputs": [],
      "name": "forwarderFactory",
      "outputs": [
        {
          "internalType": "address",
          "name": "",
          "type": "address"
        }
      ],
      "stateMutability": "view",
      "type": "function"
    },
    {
      "inputs": [
        {
          "internalType": "address",
          "name": "parent",
          "type": "address"
        }
      ],
      "name": "getCapacity",
      "outputs": [
        {
          "internalType": "uint256",
          "name": "",
          "type": "uint256"
        }
      ],
      "stateMutability": "view",
      "type": "function"
    },
    {
      "inputs": [
        {
          "internalType": "address",
          "name": "keeper",
          "type": "address"
        }
      ],
      "name": "getClaimable",
      "outputs": [
        {
          "internalType": "uint256",
          "name": "",
          "type": "uint256"
        }
      ],
      "stateMutability": "view",
      "type": "function"
    },
    {
      "inputs": [
        {
          "internalType": "bytes32",
          "name": "role",
          "type": "bytes32"
        }
      ],
      "name": "getRoleAdmin",
      "outputs": [
        {
          "internalType": "bytes32",
          "name": "",
          "type": "bytes32"
        }
      ],
      "stateMutability": "view",
      "type": "function"
    },
    {
      "inputs": [
        {
          "internalType": "bytes32",
          "name": "role",
          "type": "bytes32"
        },
        {
          "internalType": "address",
          "name": "account",
          "type": "address"
        }
      ],
      "name": "grantRole",
      "outputs": [],
      "stateMutability": "nonpayable",
      "type": "function"
    },
    {
      "inputs": [
        {
          "internalType": "bytes32",
          "name": "role",
          "type": "bytes32"
        },
        {
          "internalType": "address",
          "name": "account",
          "type": "address"
        }
      ],
      "name": "hasRole",
      "outputs": [
        {
          "internalType": "bool",
          "name": "",
          "type": "bool"
        }
      ],
      "stateMutability": "view",
      "type": "function"
    },
    {
      "inputs": [
        {
          "internalType": "address",
          "name": "tokenContractAddress",
          "type": "address"
        },
        {
          "internalType": "address",
          "name": "forwarderAddress",
          "type": "address"
        },
        {
          "internalType": "uint256",
          "name": "min",
          "type": "uint256"
        },
        {
          "internalType": "uint256",
          "name": "maxGasPrice",
          "type": "uint256"
        }
      ],
      "name": "isReadyOrAbort",
      "outputs": [],
      "stateMutability": "view",
      "type": "function"
    },
    {
      "inputs": [
        {
          "internalType": "bytes32",
          "name": "role",
          "type": "bytes32"
        },
        {
          "internalType": "address",
          "name": "account",
          "type": "address"
        }
      ],
      "name": "renounceRole",
      "outputs": [],
      "stateMutability": "nonpayable",
      "type": "function"
    },
    {
      "inputs": [
        {
          "internalType": "bytes32",
          "name": "role",
          "type": "bytes32"
        },
        {
          "internalType": "address",
          "name": "account",
          "type": "address"
        }
      ],
      "name": "revokeRole",
      "outputs": [],
      "stateMutability": "nonpayable",
      "type": "function"
    },
    {
      "inputs": [
        {
          "internalType": "address",
          "name": "tokenContractAddress",
          "type": "address"
        },
        {
          "internalType": "uint256",
          "name": "min",
          "type": "uint256"
        },
        {
          "internalType": "uint256",
          "name": "maxGasPrice",
          "type": "uint256"
        }
      ],
      "name": "setTokenConfig",
      "outputs": [],
      "stateMutability": "nonpayable",
      "type": "function"
    },
    {
      "inputs": [
        {
          "internalType": "bytes4",
          "name": "interfaceId",
          "type": "bytes4"
        }
      ],
      "name": "supportsInterface",
      "outputs": [
        {
          "internalType": "bool",
          "name": "",
          "type": "bool"
        }
      ],
      "stateMutability": "view",
      "type": "function"
    }
  ],
  "bytecode": "0x60c060405234801561001057600080fd5b50604051620013f8380380620013f88339810160408190526100319161011d565b61005b7ffc8737ab85eb45125971625a9ebdb75cc78e01d5c1fa80c4c6e5203f47bc4fab33610071565b6001600160a01b0390911660805260a052610157565b61007b828261007f565b5050565b6000828152602081815260408083206001600160a01b038516845290915290205460ff1661007b576000828152602081815260408083206001600160a01b03851684529091529020805460ff191660011790556100d93390565b6001600160a01b0316816001600160a01b0316837f2f8788117e7eff1d82e926ec794901d17c78024a50270940304540a733656f0d60405160405180910390a45050565b6000806040838503121561013057600080fd5b82516001600160a01b038116811461014757600080fd5b6020939093015192949293505050565b60805160a05161126662000192600039600081816104000152610b770152600081816102bd015281816105270152610b4601526112666000f3fe60806040526004361061012a5760003560e01c806376c4f130116100ab578063c3c20bc11161006f578063c3c20bc114610379578063d5207273146103af578063d547741f146103c6578063d9c55ce1146103e6578063dde84870146103ee578063e7f8a03a1461042257600080fd5b806376c4f130146102ab578063888ac0a7146102f757806391d148541461030e578063a217fddf1461032e578063a583024b1461034357600080fd5b8063364bc15a116100f2578063364bc15a1461020457806336568abe14610238578063379607f51461025857806338f99cb51461026b57806357337a921461028b57600080fd5b806301ffc9a71461012f5780631d9bb26d14610164578063248a9ca3146101865780632f2ff15d146101c4578063351aa887146101e4575b600080fd5b34801561013b57600080fd5b5061014f61014a366004610f47565b610442565b60405190151581526020015b60405180910390f35b34801561017057600080fd5b5061018461017f366004610f8d565b610479565b005b34801561019257600080fd5b506101b66101a1366004610fda565b60009081526020819052604090206001015490565b60405190815260200161015b565b3480156101d057600080fd5b506101846101df366004610ff3565b6105f2565b3480156101f057600080fd5b506101846101ff366004610f8d565b61061d565b34801561021057600080fd5b506101b67ffc8737ab85eb45125971625a9ebdb75cc78e01d5c1fa80c4c6e5203f47bc4fab81565b34801561024457600080fd5b50610184610253366004610ff3565b610760565b610184610266366004610fda565b6107e3565b34801561027757600080fd5b5061018461028636600461101f565b6108a2565b34801561029757600080fd5b506101846102a6366004611061565b6109cd565b3480156102b757600080fd5b506102df7f000000000000000000000000000000000000000000000000000000000000000081565b6040516001600160a01b03909116815260200161015b565b34801561030357600080fd5b506101b66201068081565b34801561031a57600080fd5b5061014f610329366004610ff3565b610a49565b34801561033a57600080fd5b506101b6600081565b34801561034f57600080fd5b506101b661035e366004611094565b6001600160a01b031660009081526003602052604090205490565b34801561038557600080fd5b506101b6610394366004611094565b6001600160a01b031660009081526002602052604090205490565b3480156103bb57600080fd5b506101b66201e5f081565b3480156103d257600080fd5b506101846103e1366004610ff3565b610a72565b610184610a98565b3480156103fa57600080fd5b506101b67f000000000000000000000000000000000000000000000000000000000000000081565b34801561042e57600080fd5b506102df61043d366004610ff3565b610af6565b60006001600160e01b03198216637965db0b60e01b148061047357506301ffc9a760e01b6001600160e01b03198316145b92915050565b7ffc8737ab85eb45125971625a9ebdb75cc78e01d5c1fa80c4c6e5203f47bc4fab6104a48133610bc1565b60006104b08587610af6565b6001600160a01b038088166000908152600160208181526040808420948a168452938152918390208351808501909452805480855291015491830182905292935090916105019187918591906108a2565b6040516307dc859960e51b81526001600160a01b038881166004830152602482018890527f0000000000000000000000000000000000000000000000000000000000000000919082169063fb90b32090604401600060405180830381600087803b15801561056e57600080fd5b505af1158015610582573d6000803e3d6000fd5b5050505060006105966201e5f08a88610c25565b604080518281526001600160a01b03808d1660208301528916918101919091529091507f01839c2f8c773085958886b5880b0ecc5bac7bf52aa5f72ee47a0cac1c6cf029906060015b60405180910390a1505050505050505050565b60008281526020819052604090206001015461060e8133610bc1565b6106188383610cc2565b505050565b7ffc8737ab85eb45125971625a9ebdb75cc78e01d5c1fa80c4c6e5203f47bc4fab6106488133610bc1565b60006106548587610af6565b6001600160a01b038088166000908152600160208181526040808420948a168452938152918390208351808501909452805480855291015491830182905292935090916106a59187918591906108a2565b604051633ef1336760e01b81526001600160a01b038681166004830152839190821690633ef1336790602401600060405180830381600087803b1580156106eb57600080fd5b505af11580156106ff573d6000803e3d6000fd5b505050506000610713620106808a88610c25565b604080518281526001600160a01b03808d1660208301528916918101919091529091507f32c835e8dc28a7c31c73601bdc8911eff9a2179baa1e3358f4e97ec8f8e529cb906060016105df565b6001600160a01b03811633146107d55760405162461bcd60e51b815260206004820152602f60248201527f416363657373436f6e74726f6c3a2063616e206f6e6c792072656e6f756e636560448201526e103937b632b9903337b91039b2b63360891b60648201526084015b60405180910390fd5b6107df8282610d46565b5050565b336000908152600360205260409020548111156108395760405162461bcd60e51b81526020600482015260146024820152734e6f7420656e6f75676820636c61696d61626c6560601b60448201526064016107cc565b604051339082156108fc029083906000818181858888f19350505050158015610866573d6000803e3d6000fd5b50604080513481523360208201527f6aa3eac93d079e5e100b1029be716caa33586c96aa4baac390669fb5c2a21212910160405180910390a150565b600082116108dd5760405162461bcd60e51b815260206004820152600860248201526704d696e20697320360c41b60448201526064016107cc565b3a81101561091d5760405162461bcd60e51b815260206004820152600d60248201526c4d61782067617320707269636560981b60448201526064016107cc565b6040516370a0823160e01b81526001600160a01b038481166004830152859184918316906370a0823190602401602060405180830381865afa158015610967573d6000803e3d6000fd5b505050506040513d601f19601f8201168201806040525081019061098b91906110af565b10156109c65760405162461bcd60e51b815260206004820152600a6024820152694d696e20746f6b656e7360b01b60448201526064016107cc565b5050505050565b3360008181526001602081815260408084206001600160a01b0389168086529083529381902092830187905585835580519485529084019290925290820184905260608201839052907f1a538fca982d1c174f4edc88d83e386d7075668c7d17a3d9ade6f646c6070f5e9060800160405180910390a150505050565b6000918252602082815260408084206001600160a01b0393909316845291905290205460ff1690565b600082815260208190526040902060010154610a8e8133610bc1565b6106188383610d46565b3360009081526002602052604081208054349290610ab79084906110de565b9091555050604080513481523360208201527f48996614f3380f3dcd5a2d2e6eaddfd66207ff3457fee339e09b4735bc9ec958910160405180910390a1565b604080516bffffffffffffffffffffffff19606084811b82166020808501919091526034808501889052855180860390910181526054850186528051908201206001600160f81b031960748601527f000000000000000000000000000000000000000000000000000000000000000090921b909216607584015260898301527f000000000000000000000000000000000000000000000000000000000000000060a9808401919091528351808403909101815260c990920190925280519101206000905b9392505050565b610bcb8282610a49565b6107df57610be3816001600160a01b03166014610dab565b610bee836020610dab565b604051602001610bff929190611126565b60408051601f198184030181529082905262461bcd60e51b82526107cc9160040161119b565b6001600160a01b0382166000908152600260205260409020543a840290811115610c875760405162461bcd60e51b81526020600482015260136024820152724e6f7420656e6f75676820636170616369747960681b60448201526064016107cc565b6001600160a01b0392831660009081526002602090815260408083208054859003905593909416815260039093529120805482019055919050565b610ccc8282610a49565b6107df576000828152602081815260408083206001600160a01b03851684529091529020805460ff19166001179055610d023390565b6001600160a01b0316816001600160a01b0316837f2f8788117e7eff1d82e926ec794901d17c78024a50270940304540a733656f0d60405160405180910390a45050565b610d508282610a49565b156107df576000828152602081815260408083206001600160a01b0385168085529252808320805460ff1916905551339285917ff6391f5c32d9c69d2a47ea670b442974b53935d1edc7fd64eb21e047a839171b9190a45050565b60606000610dba8360026111ce565b610dc59060026110de565b67ffffffffffffffff811115610ddd57610ddd6111ed565b6040519080825280601f01601f191660200182016040528015610e07576020820181803683370190505b509050600360fc1b81600081518110610e2257610e22611203565b60200101906001600160f81b031916908160001a905350600f60fb1b81600181518110610e5157610e51611203565b60200101906001600160f81b031916908160001a9053506000610e758460026111ce565b610e809060016110de565b90505b6001811115610ef8576f181899199a1a9b1b9c1cb0b131b232b360811b85600f1660108110610eb457610eb4611203565b1a60f81b828281518110610eca57610eca611203565b60200101906001600160f81b031916908160001a90535060049490941c93610ef181611219565b9050610e83565b508315610bba5760405162461bcd60e51b815260206004820181905260248201527f537472696e67733a20686578206c656e67746820696e73756666696369656e7460448201526064016107cc565b600060208284031215610f5957600080fd5b81356001600160e01b031981168114610bba57600080fd5b80356001600160a01b0381168114610f8857600080fd5b919050565b60008060008060808587031215610fa357600080fd5b610fac85610f71565b935060208501359250610fc160408601610f71565b9150610fcf60608601610f71565b905092959194509250565b600060208284031215610fec57600080fd5b5035919050565b6000806040838503121561100657600080fd5b8235915061101660208401610f71565b90509250929050565b6000806000806080858703121561103557600080fd5b61103e85610f71565b935061104c60208601610f71565b93969395505050506040820135916060013590565b60008060006060848603121561107657600080fd5b61107f84610f71565b95602085013595506040909401359392505050565b6000602082840312156110a657600080fd5b610bba82610f71565b6000602082840312156110c157600080fd5b5051919050565b634e487b7160e01b600052601160045260246000fd5b600082198211156110f1576110f16110c8565b500190565b60005b838110156111115781810151838201526020016110f9565b83811115611120576000848401525b50505050565b7f416363657373436f6e74726f6c3a206163636f756e742000000000000000000081526000835161115e8160178501602088016110f6565b7001034b99036b4b9b9b4b733903937b6329607d1b601791840191820152835161118f8160288401602088016110f6565b01602801949350505050565b60208152600082518060208401526111ba8160408501602087016110f6565b601f01601f19169190910160400192915050565b60008160001904831182151516156111e8576111e86110c8565b500290565b634e487b7160e01b600052604160045260246000fd5b634e487b7160e01b600052603260045260246000fd5b600081611228576112286110c8565b50600019019056fea26469706673582212200eeb501994626ca155302bd268be61ffa7204b6b024e8667d3ec064a0b4e8e3964736f6c634300080a0033",
  "linkReferences": {},
  "deployedLinkReferences": {}
}