{
  "_format": "hh-sol-artifact-1",
  "contractName": "GasStation",
  "sourceName": "contracts/GasStation.sol",
  "abi": [
    {
      "inputs": [
        {
          "internalType": "address",
          "name": "_forwarderFactory",
          "type": "address"
        },
        {
          "internalType": "bytes32",
          "name": "_forwarderBytecodeHash",
          "type": "bytes32"
        }
      ],
      "stateMutability": "nonpayable",
      "type": "constructor"
    },
    {
      "anonymous": false,
      "inputs": [
        {
          "indexed": false,
          "internalType": "uint256",
          "name": "value",
          "type": "uint256"
        },
        {
          "indexed": false,
          "internalType": "address",
          "name": "parent",
          "type": "address"
        }
      ],
      "name": "Claimed",
      "type": "event"
    },
    {
      "anonymous": false,
      "inputs": [
        {
          "indexed": false,
          "internalType": "address",
          "name": "parent",
          "type": "address"
        },
        {
          "indexed": false,
          "internalType": "address",
          "name": "token",
          "type": "address"
        },
        {
          "indexed": false,
          "internalType": "uint256",
          "name": "min",
          "type": "uint256"
        },
        {
          "indexed": false,
          "internalType": "uint256",
          "name": "maxGasPrice",
          "type": "uint256"
        }
      ],
      "name": "ConfigSet",
      "type": "event"
    },
    {
      "anonymous": false,
      "inputs": [
        {
          "indexed": false,
          "internalType": "uint256",
          "name": "value",
          "type": "uint256"
        },
        {
          "indexed": false,
          "internalType": "address",
          "name": "parent",
          "type": "address"
        },
        {
          "indexed": false,
          "internalType": "address",
          "name": "keeperAddress",
          "type": "address"
        }
      ],
      "name": "Consumed",
      "type": "event"
    },
    {
      "anonymous": false,
      "inputs": [
        {
          "indexed": false,
          "internalType": "uint256",
          "name": "value",
          "type": "uint256"
        },
        {
          "indexed": false,
          "internalType": "address",
          "name": "parent",
          "type": "address"
        }
      ],
      "name": "Filled",
      "type": "event"
    },
    {
      "inputs": [],
      "name": "KEEPER_CREATE_FORWARDER_EXPECTED_CONSUMED_GAS",
      "outputs": [
        {
          "internalType": "uint256",
          "name": "",
          "type": "uint256"
        }
      ],
      "stateMutability": "view",
      "type": "function"
    },
    {
      "inputs": [],
      "name": "KEEPER_FLUSH_EXPECTED_CONSUMED_GAS",
      "outputs": [
        {
          "internalType": "uint256",
          "name": "",
          "type": "uint256"
        }
      ],
      "stateMutability": "view",
      "type": "function"
    },
    {
      "inputs": [
        {
          "internalType": "uint256",
          "name": "value",
          "type": "uint256"
        }
      ],
      "name": "claim",
      "outputs": [],
      "stateMutability": "payable",
      "type": "function"
    },
    {
      "inputs": [
        {
          "internalType": "bytes32",
          "name": "salt",
          "type": "bytes32"
        },
        {
          "internalType": "address",
          "name": "_parent",
          "type": "address"
        }
      ],
      "name": "computeForwarderAddress",
      "outputs": [
        {
          "internalType": "address",
          "name": "",
          "type": "address"
        }
      ],
      "stateMutability": "view",
      "type": "function"
    },
    {
      "inputs": [
        {
          "internalType": "address",
          "name": "parent",
          "type": "address"
        },
        {
          "internalType": "bytes32",
          "name": "forwarderSalt",
          "type": "bytes32"
        },
        {
          "internalType": "address",
          "name": "tokenContractAddress",
          "type": "address"
        },
        {
          "internalType": "address",
          "name": "keeper",
          "type": "address"
        }
      ],
      "name": "createForwarder",
      "outputs": [],
      "stateMutability": "nonpayable",
      "type": "function"
    },
    {
      "inputs": [],
      "name": "fill",
      "outputs": [],
      "stateMutability": "payable",
      "type": "function"
    },
    {
      "inputs": [
        {
          "internalType": "address",
          "name": "parent",
          "type": "address"
        },
        {
          "internalType": "bytes32",
          "name": "forwarderSalt",
          "type": "bytes32"
        },
        {
          "internalType": "address",
          "name": "tokenContractAddress",
          "type": "address"
        },
        {
          "internalType": "address",
          "name": "keeper",
          "type": "address"
        }
      ],
      "name": "flush",
      "outputs": [],
      "stateMutability": "nonpayable",
      "type": "function"
    },
    {
      "inputs": [],
      "name": "forwarderBytecodeHash",
      "outputs": [
        {
          "internalType": "bytes32",
          "name": "",
          "type": "bytes32"
        }
      ],
      "stateMutability": "view",
      "type": "function"
    },
    {
      "inputs": [],
      "name": "forwarderFactory",
      "outputs": [
        {
          "internalType": "address",
          "name": "",
          "type": "address"
        }
      ],
      "stateMutability": "view",
      "type": "function"
    },
    {
      "inputs": [
        {
          "internalType": "address",
          "name": "parent",
          "type": "address"
        }
      ],
      "name": "getCapacity",
      "outputs": [
        {
          "internalType": "uint256",
          "name": "",
          "type": "uint256"
        }
      ],
      "stateMutability": "view",
      "type": "function"
    },
    {
      "inputs": [
        {
          "internalType": "address",
          "name": "keeper",
          "type": "address"
        }
      ],
      "name": "getClaimable",
      "outputs": [
        {
          "internalType": "uint256",
          "name": "",
          "type": "uint256"
        }
      ],
      "stateMutability": "view",
      "type": "function"
    },
    {
      "inputs": [
        {
          "internalType": "address",
          "name": "tokenContractAddress",
          "type": "address"
        },
        {
          "internalType": "address",
          "name": "forwarderAddress",
          "type": "address"
        },
        {
          "internalType": "uint256",
          "name": "min",
          "type": "uint256"
        },
        {
          "internalType": "uint256",
          "name": "maxGasPrice",
          "type": "uint256"
        }
      ],
      "name": "isReadyOrAbort",
      "outputs": [],
      "stateMutability": "view",
      "type": "function"
    },
    {
      "inputs": [
        {
          "internalType": "address",
          "name": "tokenContractAddress",
          "type": "address"
        },
        {
          "internalType": "uint256",
          "name": "min",
          "type": "uint256"
        },
        {
          "internalType": "uint256",
          "name": "maxGasPrice",
          "type": "uint256"
        }
      ],
      "name": "setTokenConfig",
      "outputs": [],
      "stateMutability": "nonpayable",
      "type": "function"
    }
  ],
  "bytecode": "0x60c060405234801561001057600080fd5b50604051610b4b380380610b4b83398101604081905261002f91610045565b6001600160a01b0390911660805260a05261007f565b6000806040838503121561005857600080fd5b82516001600160a01b038116811461006f57600080fd5b6020939093015192949293505050565b60805160a051610a926100b96000396000818161026f01526107bf01526000818161016e01528181610335015261078e0152610a926000f3fe6080604052600436106100c25760003560e01c8063888ac0a71161007f578063d520727311610059578063d52072731461023e578063d9c55ce114610255578063dde848701461025d578063e7f8a03a1461029157600080fd5b8063888ac0a7146101ad578063a583024b146101d2578063c3c20bc11461020857600080fd5b80631d9bb26d146100c7578063351aa887146100e9578063379607f51461010957806338f99cb51461011c57806357337a921461013c57806376c4f1301461015c575b600080fd5b3480156100d357600080fd5b506100e76100e23660046108fb565b6102b1565b005b3480156100f557600080fd5b506100e76101043660046108fb565b6103ab565b6100e7610117366004610948565b610475565b34801561012857600080fd5b506100e7610137366004610961565b610539565b34801561014857600080fd5b506100e76101573660046109a3565b610664565b34801561016857600080fd5b506101907f000000000000000000000000000000000000000000000000000000000000000081565b6040516001600160a01b0390911681526020015b60405180910390f35b3480156101b957600080fd5b506101c46201440681565b6040519081526020016101a4565b3480156101de57600080fd5b506101c46101ed3660046109d6565b6001600160a01b031660009081526002602052604090205490565b34801561021457600080fd5b506101c46102233660046109d6565b6001600160a01b031660009081526001602052604090205490565b34801561024a57600080fd5b506101c46201dc9081565b6100e76106e0565b34801561026957600080fd5b506101c47f000000000000000000000000000000000000000000000000000000000000000081565b34801561029d57600080fd5b506101906102ac3660046109f1565b61073e565b60006102bd848661073e565b6001600160a01b0380871660009081526020818152604080832093881683529281529082902082518084019093528054808452600190910154918301829052929350909161030f918691859190610539565b6040516307dc859960e51b81526001600160a01b038781166004830152602482018790527f0000000000000000000000000000000000000000000000000000000000000000919082169063fb90b32090604401600060405180830381600087803b15801561037c57600080fd5b505af1158015610390573d6000803e3d6000fd5b505050506103a26201dc908886610809565b50505050505050565b60006103b7848661073e565b6001600160a01b03808716600090815260208181526040808320938816835292815290829020825180840190935280548084526001909101549183018290529293509091610409918691859190610539565b604051633ef1336760e01b81526001600160a01b038581166004830152839190821690633ef1336790602401600060405180830381600087803b15801561044f57600080fd5b505af1158015610463573d6000803e3d6000fd5b505050506103a2620144068886610809565b336000908152600260205260409020548111156104d05760405162461bcd60e51b81526020600482015260146024820152734e6f7420656e6f75676820636c61696d61626c6560601b60448201526064015b60405180910390fd5b604051339082156108fc029083906000818181858888f193505050501580156104fd573d6000803e3d6000fd5b50604080513481523360208201527f6aa3eac93d079e5e100b1029be716caa33586c96aa4baac390669fb5c2a21212910160405180910390a150565b600082116105745760405162461bcd60e51b815260206004820152600860248201526704d696e20697320360c41b60448201526064016104c7565b3a8110156105b45760405162461bcd60e51b815260206004820152600d60248201526c4d61782067617320707269636560981b60448201526064016104c7565b6040516370a0823160e01b81526001600160a01b038481166004830152859184918316906370a0823190602401602060405180830381865afa1580156105fe573d6000803e3d6000fd5b505050506040513d601f19601f820116820180604052508101906106229190610a1d565b101561065d5760405162461bcd60e51b815260206004820152600a6024820152694d696e20746f6b656e7360b01b60448201526064016104c7565b5050505050565b336000818152602081815260408083206001600160a01b038816808552908352928190206001810187905585815581519485529184019290925290820184905260608201839052907f1a538fca982d1c174f4edc88d83e386d7075668c7d17a3d9ade6f646c6070f5e906080015b60405180910390a150505050565b33600090815260016020526040812080543492906106ff908490610a36565b9091555050604080513481523360208201527f48996614f3380f3dcd5a2d2e6eaddfd66207ff3457fee339e09b4735bc9ec958910160405180910390a1565b604080516bffffffffffffffffffffffff19606084811b82166020808501919091526034808501889052855180860390910181526054850186528051908201206001600160f81b031960748601527f000000000000000000000000000000000000000000000000000000000000000090921b909216607584015260898301527f000000000000000000000000000000000000000000000000000000000000000060a9808401919091528351808403909101815260c990920190925280519101206000905b9392505050565b6001600160a01b0382166000908152600160205260409020543a84029081111561086b5760405162461bcd60e51b81526020600482015260136024820152724e6f7420656e6f75676820636170616369747960681b60448201526064016104c7565b6001600160a01b038381166000818152600160209081526040808320805487900390559386168083526002825291849020805486019055835185815290810192909252918101919091527f75d42b58d8d1e7cfde6595571f79846597dad98c42dda36928207e6804732d79906060016106d2565b80356001600160a01b03811681146108f657600080fd5b919050565b6000806000806080858703121561091157600080fd5b61091a856108df565b93506020850135925061092f604086016108df565b915061093d606086016108df565b905092959194509250565b60006020828403121561095a57600080fd5b5035919050565b6000806000806080858703121561097757600080fd5b610980856108df565b935061098e602086016108df565b93969395505050506040820135916060013590565b6000806000606084860312156109b857600080fd5b6109c1846108df565b95602085013595506040909401359392505050565b6000602082840312156109e857600080fd5b610802826108df565b60008060408385031215610a0457600080fd5b82359150610a14602084016108df565b90509250929050565b600060208284031215610a2f57600080fd5b5051919050565b60008219821115610a5757634e487b7160e01b600052601160045260246000fd5b50019056fea26469706673582212200353f45d4133d2fac7de16f5d079f75c6b066c0b076f73e7f7e1ac57e7de7b1d64736f6c634300080a0033",
  "linkReferences": {},
  "deployedLinkReferences": {}
}